{
  "contractName": "LoyaltyToken",
  "abi": [
    {
      "inputs": [],
      "stateMutability": "nonpayable",
      "type": "constructor"
    },
    {
      "anonymous": false,
      "inputs": [
        {
          "indexed": true,
          "internalType": "address",
          "name": "to",
          "type": "address"
        },
        {
          "indexed": false,
          "internalType": "uint256",
          "name": "amount",
          "type": "uint256"
        }
      ],
      "name": "Mint",
      "type": "event"
    },
    {
      "inputs": [
        {
          "internalType": "address",
          "name": "",
          "type": "address"
        }
      ],
      "name": "balanceOf",
      "outputs": [
        {
          "internalType": "uint256",
          "name": "",
          "type": "uint256"
        }
      ],
      "stateMutability": "view",
      "type": "function"
    },
    {
      "inputs": [],
      "name": "decimals",
      "outputs": [
        {
          "internalType": "uint8",
          "name": "",
          "type": "uint8"
        }
      ],
      "stateMutability": "view",
      "type": "function"
    },
    {
      "inputs": [],
      "name": "name",
      "outputs": [
        {
          "internalType": "string",
          "name": "",
          "type": "string"
        }
      ],
      "stateMutability": "view",
      "type": "function"
    },
    {
      "inputs": [],
      "name": "owner",
      "outputs": [
        {
          "internalType": "address",
          "name": "",
          "type": "address"
        }
      ],
      "stateMutability": "view",
      "type": "function"
    },
    {
      "inputs": [],
      "name": "symbol",
      "outputs": [
        {
          "internalType": "string",
          "name": "",
          "type": "string"
        }
      ],
      "stateMutability": "view",
      "type": "function"
    },
    {
      "inputs": [
        {
          "internalType": "address",
          "name": "to",
          "type": "address"
        },
        {
          "internalType": "uint256",
          "name": "amount",
          "type": "uint256"
        }
      ],
      "name": "mint",
      "outputs": [],
      "stateMutability": "nonpayable",
      "type": "function"
    }
  ],
  "bytecode": "0x60806040526040518060400160405280601781526020017f5469636b65744e4654204c6f79616c747920546f6b656e000000000000000000815250600090816200004a91906200037d565b506040518060400160405280600381526020017f544f4b0000000000000000000000000000000000000000000000000000000000815250600190816200009191906200037d565b506000600260006101000a81548160ff021916908360ff160217905550348015620000bb57600080fd5b5033600260016101000a81548173ffffffffffffffffffffffffffffffffffffffff021916908373ffffffffffffffffffffffffffffffffffffffff16021790555062000464565b600081519050919050565b7f4e487b7100000000000000000000000000000000000000000000000000000000600052604160045260246000fd5b7f4e487b7100000000000000000000000000000000000000000000000000000000600052602260045260246000fd5b600060028204905060018216806200018557607f821691505b6020821081036200019b576200019a6200013d565b5b50919050565b60008190508160005260206000209050919050565b60006020601f8301049050919050565b600082821b905092915050565b600060088302620002057fffffffffffffffffffffffffffffffffffffffffffffffffffffffffffffffff82620001c6565b620002118683620001c6565b95508019841693508086168417925050509392505050565b6000819050919050565b6000819050919050565b60006200025e62000258620002528462000229565b62000233565b62000229565b9050919050565b6000819050919050565b6200027a836200023d565b62000292620002898262000265565b848454620001d3565b825550505050565b600090565b620002a96200029a565b620002b68184846200026f565b505050565b5b81811015620002de57620002d26000826200029f565b600181019050620002bc565b5050565b601f8211156200032d57620002f781620001a1565b6200030284620001b6565b8101602085101562000312578190505b6200032a6200032185620001b6565b830182620002bb565b50505b505050565b600082821c905092915050565b6000620003526000198460080262000332565b1980831691505092915050565b60006200036d83836200033f565b9150826002028217905092915050565b620003888262000103565b67ffffffffffffffff811115620003a457620003a36200010e565b5b620003b082546200016c565b620003bd828285620002e2565b600060209050601f831160018114620003f55760008415620003e0578287015190505b620003ec85826200035f565b8655506200045c565b601f1984166200040586620001a1565b60005b828110156200042f5784890151825560018201915060208501945060208101905062000408565b868310156200044f57848901516200044b601f8916826200033f565b8355505b6001600288020188555050505b505050505050565b61077880620004746000396000f3fe608060405234801561001057600080fd5b50600436106100625760003560e01c806306fdde0314610067578063313ce5671461008557806340c10f19146100a357806370a08231146100bf5780638da5cb5b146100ef57806395d89b411461010d575b600080fd5b61006f61012b565b60405161007c9190610460565b60405180910390f35b61008d6101b9565b60405161009a919061049e565b60405180910390f35b6100bd60048036038101906100b89190610552565b6101cc565b005b6100d960048036038101906100d49190610592565b610304565b6040516100e691906105ce565b60405180910390f35b6100f761031c565b60405161010491906105f8565b60405180910390f35b610115610342565b6040516101229190610460565b60405180910390f35b6000805461013890610642565b80601f016020809104026020016040519081016040528092919081815260200182805461016490610642565b80156101b15780601f10610186576101008083540402835291602001916101b1565b820191906000526020600020905b81548152906001019060200180831161019457829003601f168201915b505050505081565b600260009054906101000a900460ff1681565b600260019054906101000a900473ffffffffffffffffffffffffffffffffffffffff1673ffffffffffffffffffffffffffffffffffffffff163373ffffffffffffffffffffffffffffffffffffffff161461025c576040517f08c379a0000000000000000000000000000000000000000000000000000000008152600401610253906106bf565b60405180910390fd5b80600360008473ffffffffffffffffffffffffffffffffffffffff1673ffffffffffffffffffffffffffffffffffffffff16815260200190815260200160002060008282546102ab919061070e565b925050819055508173ffffffffffffffffffffffffffffffffffffffff167f0f6798a560793a54c3bcfe86a93cde1e73087d944c0ea20544137d4121396885826040516102f891906105ce565b60405180910390a25050565b60036020528060005260406000206000915090505481565b600260019054906101000a900473ffffffffffffffffffffffffffffffffffffffff1681565b6001805461034f90610642565b80601f016020809104026020016040519081016040528092919081815260200182805461037b90610642565b80156103c85780601f1061039d576101008083540402835291602001916103c8565b820191906000526020600020905b8154815290600101906020018083116103ab57829003601f168201915b505050505081565b600081519050919050565b600082825260208201905092915050565b60005b8381101561040a5780820151818401526020810190506103ef565b60008484015250505050565b6000601f19601f8301169050919050565b6000610432826103d0565b61043c81856103db565b935061044c8185602086016103ec565b61045581610416565b840191505092915050565b6000602082019050818103600083015261047a8184610427565b905092915050565b600060ff82169050919050565b61049881610482565b82525050565b60006020820190506104b3600083018461048f565b92915050565b600080fd5b600073ffffffffffffffffffffffffffffffffffffffff82169050919050565b60006104e9826104be565b9050919050565b6104f9816104de565b811461050457600080fd5b50565b600081359050610516816104f0565b92915050565b6000819050919050565b61052f8161051c565b811461053a57600080fd5b50565b60008135905061054c81610526565b92915050565b60008060408385031215610569576105686104b9565b5b600061057785828601610507565b92505060206105888582860161053d565b9150509250929050565b6000602082840312156105a8576105a76104b9565b5b60006105b684828501610507565b91505092915050565b6105c88161051c565b82525050565b60006020820190506105e360008301846105bf565b92915050565b6105f2816104de565b82525050565b600060208201905061060d60008301846105e9565b92915050565b7f4e487b7100000000000000000000000000000000000000000000000000000000600052602260045260246000fd5b6000600282049050600182168061065a57607f821691505b60208210810361066d5761066c610613565b5b50919050565b7f4e6f74206f776e65720000000000000000000000000000000000000000000000600082015250565b60006106a96009836103db565b91506106b482610673565b602082019050919050565b600060208201905081810360008301526106d88161069c565b9050919050565b7f4e487b7100000000000000000000000000000000000000000000000000000000600052601160045260246000fd5b60006107198261051c565b91506107248361051c565b925082820190508082111561073c5761073b6106df565b5b9291505056fea26469706673582212200a0fd23853126bd976c733031ce9db1fbdc8b6ef5c0d86e59fd277b6cd343d2864736f6c63430008130033",
  "immutableReferences": {},
  "source": "// SPDX-License-Identifier: MIT\r\npragma solidity ^0.8.19;\r\n\r\n// Minimal ERC20-like token for school prototype (not production)\r\ncontract LoyaltyToken {\r\n    string public name = \"TicketNFT Loyalty Token\";\r\n    string public symbol = \"TOK\";\r\n    uint8 public decimals = 0;\r\n\r\n    address public owner;\r\n    mapping(address => uint256) public balanceOf;\r\n\r\n    event Mint(address indexed to, uint256 amount);\r\n\r\n    modifier onlyOwner() { require(msg.sender == owner, \"Not owner\"); _; }\r\n\r\n    constructor() {\r\n        owner = msg.sender;\r\n    }\r\n\r\n    function mint(address to, uint256 amount) external onlyOwner {\r\n        balanceOf[to] += amount;\r\n        emit Mint(to, amount);\r\n    }\r\n}\r\n",
  "sourcePath": "C:\\C373\\FA CODES\\C373_FA_Team1\\blockchain\\contracts\\LoyaltyToken.sol",
  "compiler": {
    "name": "solc",
    "version": "0.8.19+commit.7dd6d404.Emscripten.clang"
  },
  "schemaVersion": "3.4.16",
  "updatedAt": "2026-01-22T18:06:04.553Z",
  "devdoc": {
    "kind": "dev",
    "methods": {},
    "version": 1
  },
  "userdoc": {
    "kind": "user",
    "methods": {},
    "version": 1
  }
}