{
  "contractName": "LoyaltyToken",
  "abi": [
    {
      "inputs": [],
      "stateMutability": "nonpayable",
      "type": "constructor"
    },
    {
      "anonymous": false,
      "inputs": [
        {
          "indexed": true,
          "internalType": "address",
          "name": "to",
          "type": "address"
        },
        {
          "indexed": false,
          "internalType": "uint256",
          "name": "amount",
          "type": "uint256"
        }
      ],
      "name": "Mint",
      "type": "event"
    },
    {
      "inputs": [
        {
          "internalType": "address",
          "name": "",
          "type": "address"
        }
      ],
      "name": "balanceOf",
      "outputs": [
        {
          "internalType": "uint256",
          "name": "",
          "type": "uint256"
        }
      ],
      "stateMutability": "view",
      "type": "function",
      "constant": true
    },
    {
      "inputs": [],
      "name": "decimals",
      "outputs": [
        {
          "internalType": "uint8",
          "name": "",
          "type": "uint8"
        }
      ],
      "stateMutability": "view",
      "type": "function",
      "constant": true
    },
    {
      "inputs": [],
      "name": "name",
      "outputs": [
        {
          "internalType": "string",
          "name": "",
          "type": "string"
        }
      ],
      "stateMutability": "view",
      "type": "function",
      "constant": true
    },
    {
      "inputs": [],
      "name": "owner",
      "outputs": [
        {
          "internalType": "address",
          "name": "",
          "type": "address"
        }
      ],
      "stateMutability": "view",
      "type": "function",
      "constant": true
    },
    {
      "inputs": [],
      "name": "symbol",
      "outputs": [
        {
          "internalType": "string",
          "name": "",
          "type": "string"
        }
      ],
      "stateMutability": "view",
      "type": "function",
      "constant": true
    },
    {
      "inputs": [
        {
          "internalType": "address",
          "name": "to",
          "type": "address"
        },
        {
          "internalType": "uint256",
          "name": "amount",
          "type": "uint256"
        }
      ],
      "name": "mint",
      "outputs": [],
      "stateMutability": "nonpayable",
      "type": "function"
    }
  ],
  "bytecode": "0x60c0604052601760809081527f5469636b65744e4654204c6f79616c747920546f6b656e00000000000000000060a05260009061003c9082610137565b50604080518082019091526003815262544f4b60e81b60208201526001906100649082610137565b506002805460ff1916905534801561007b57600080fd5b5060028054610100600160a81b03191633610100021790556101f6565b634e487b7160e01b600052604160045260246000fd5b600181811c908216806100c257607f821691505b6020821081036100e257634e487b7160e01b600052602260045260246000fd5b50919050565b601f82111561013257600081815260208120601f850160051c8101602086101561010f5750805b601f850160051c820191505b8181101561012e5782815560010161011b565b5050505b505050565b81516001600160401b0381111561015057610150610098565b6101648161015e84546100ae565b846100e8565b602080601f83116001811461019957600084156101815750858301515b600019600386901b1c1916600185901b17855561012e565b600085815260208120601f198616915b828110156101c8578886015182559484019460019091019084016101a9565b50858210156101e65787850151600019600388901b60f8161c191681555b5050505050600190811b01905550565b6103c5806102056000396000f3fe608060405234801561001057600080fd5b50600436106100625760003560e01c806306fdde0314610067578063313ce5671461008557806340c10f19146100a457806370a08231146100b95780638da5cb5b146100e757806395d89b4114610117575b600080fd5b61006f61011f565b60405161007c9190610278565b60405180910390f35b6002546100929060ff1681565b60405160ff909116815260200161007c565b6100b76100b23660046102e2565b6101ad565b005b6100d96100c736600461030c565b60036020526000908152604090205481565b60405190815260200161007c565b6002546100ff9061010090046001600160a01b031681565b6040516001600160a01b03909116815260200161007c565b61006f61026b565b6000805461012c9061032e565b80601f01602080910402602001604051908101604052809291908181526020018280546101589061032e565b80156101a55780601f1061017a576101008083540402835291602001916101a5565b820191906000526020600020905b81548152906001019060200180831161018857829003601f168201915b505050505081565b60025461010090046001600160a01b031633146101fc5760405162461bcd60e51b81526020600482015260096024820152682737ba1037bbb732b960b91b604482015260640160405180910390fd5b6001600160a01b03821660009081526003602052604081208054839290610224908490610368565b90915550506040518181526001600160a01b038316907f0f6798a560793a54c3bcfe86a93cde1e73087d944c0ea20544137d41213968859060200160405180910390a25050565b6001805461012c9061032e565b600060208083528351808285015260005b818110156102a557858101830151858201604001528201610289565b506000604082860101526040601f19601f8301168501019250505092915050565b80356001600160a01b03811681146102dd57600080fd5b919050565b600080604083850312156102f557600080fd5b6102fe836102c6565b946020939093013593505050565b60006020828403121561031e57600080fd5b610327826102c6565b9392505050565b600181811c9082168061034257607f821691505b60208210810361036257634e487b7160e01b600052602260045260246000fd5b50919050565b8082018082111561038957634e487b7160e01b600052601160045260246000fd5b9291505056fea2646970667358221220e0a2d790fecd54b298c15e04a1aaca91916d637001525ad7aa1b4a2bc0b0583a64736f6c63430008130033",
  "immutableReferences": {},
  "source": "// SPDX-License-Identifier: MIT\npragma solidity ^0.8.19;\n\n// Minimal ERC20-like token for school prototype (not production)\ncontract LoyaltyToken {\n    string public name = \"TicketNFT Loyalty Token\";\n    string public symbol = \"TOK\";\n    uint8 public decimals = 0;\n\n    address public owner;\n    mapping(address => uint256) public balanceOf;\n\n    event Mint(address indexed to, uint256 amount);\n\n    modifier onlyOwner() { require(msg.sender == owner, \"Not owner\"); _; }\n\n    constructor() {\n        owner = msg.sender;\n    }\n\n    function mint(address to, uint256 amount) external onlyOwner {\n        balanceOf[to] += amount;\n        emit Mint(to, amount);\n    }\n}\n",
  "sourcePath": "C:\\C373\\FA CODES\\C373_FA_Team1\\blockchain\\contracts\\LoyaltyToken.sol",
  "compiler": {
    "name": "solc",
    "version": "0.8.19+commit.7dd6d404.Emscripten.clang"
  },
  "schemaVersion": "3.4.16",
  "updatedAt": "2026-01-27T05:25:49.281Z",
  "networkType": "ethereum",
  "devdoc": {
    "kind": "dev",
    "methods": {},
    "version": 1
  },
  "userdoc": {
    "kind": "user",
    "methods": {},
    "version": 1
  }
}