{
  "contractName": "TicketNFT",
  "abi": [
    {
      "inputs": [],
      "stateMutability": "nonpayable",
      "type": "constructor"
    },
    {
      "anonymous": false,
      "inputs": [
        {
          "indexed": true,
          "internalType": "uint256",
          "name": "eventId",
          "type": "uint256"
        },
        {
          "indexed": false,
          "internalType": "string",
          "name": "title",
          "type": "string"
        },
        {
          "indexed": true,
          "internalType": "address",
          "name": "seller",
          "type": "address"
        }
      ],
      "name": "EventCreated",
      "type": "event"
    },
    {
      "anonymous": false,
      "inputs": [
        {
          "indexed": true,
          "internalType": "uint256",
          "name": "eventId",
          "type": "uint256"
        },
        {
          "indexed": false,
          "internalType": "bool",
          "name": "active",
          "type": "bool"
        }
      ],
      "name": "EventStatus",
      "type": "event"
    },
    {
      "anonymous": false,
      "inputs": [
        {
          "indexed": true,
          "internalType": "uint256",
          "name": "eventId",
          "type": "uint256"
        },
        {
          "indexed": true,
          "internalType": "address",
          "name": "seller",
          "type": "address"
        }
      ],
      "name": "SellerChanged",
      "type": "event"
    },
    {
      "anonymous": false,
      "inputs": [
        {
          "indexed": true,
          "internalType": "address",
          "name": "buyer",
          "type": "address"
        },
        {
          "indexed": true,
          "internalType": "uint256",
          "name": "eventId",
          "type": "uint256"
        },
        {
          "indexed": true,
          "internalType": "uint256",
          "name": "typeId",
          "type": "uint256"
        },
        {
          "indexed": false,
          "internalType": "uint256",
          "name": "tokenId",
          "type": "uint256"
        }
      ],
      "name": "TicketMinted",
      "type": "event"
    },
    {
      "anonymous": false,
      "inputs": [
        {
          "indexed": true,
          "internalType": "uint256",
          "name": "eventId",
          "type": "uint256"
        },
        {
          "indexed": true,
          "internalType": "uint256",
          "name": "typeId",
          "type": "uint256"
        },
        {
          "indexed": false,
          "internalType": "string",
          "name": "name",
          "type": "string"
        },
        {
          "indexed": false,
          "internalType": "uint256",
          "name": "priceWei",
          "type": "uint256"
        },
        {
          "indexed": false,
          "internalType": "uint256",
          "name": "maxSupply",
          "type": "uint256"
        }
      ],
      "name": "TicketTypeAdded",
      "type": "event"
    },
    {
      "inputs": [],
      "name": "eventCount",
      "outputs": [
        {
          "internalType": "uint256",
          "name": "",
          "type": "uint256"
        }
      ],
      "stateMutability": "view",
      "type": "function",
      "constant": true
    },
    {
      "inputs": [
        {
          "internalType": "uint256",
          "name": "",
          "type": "uint256"
        }
      ],
      "name": "events",
      "outputs": [
        {
          "internalType": "string",
          "name": "title",
          "type": "string"
        },
        {
          "internalType": "address payable",
          "name": "seller",
          "type": "address"
        },
        {
          "internalType": "bool",
          "name": "active",
          "type": "bool"
        },
        {
          "internalType": "uint256",
          "name": "ticketTypeCount",
          "type": "uint256"
        }
      ],
      "stateMutability": "view",
      "type": "function",
      "constant": true
    },
    {
      "inputs": [],
      "name": "nextTokenId",
      "outputs": [
        {
          "internalType": "uint256",
          "name": "",
          "type": "uint256"
        }
      ],
      "stateMutability": "view",
      "type": "function",
      "constant": true
    },
    {
      "inputs": [],
      "name": "owner",
      "outputs": [
        {
          "internalType": "address",
          "name": "",
          "type": "address"
        }
      ],
      "stateMutability": "view",
      "type": "function",
      "constant": true
    },
    {
      "inputs": [
        {
          "internalType": "uint256",
          "name": "",
          "type": "uint256"
        }
      ],
      "name": "ownerOf",
      "outputs": [
        {
          "internalType": "address",
          "name": "",
          "type": "address"
        }
      ],
      "stateMutability": "view",
      "type": "function",
      "constant": true
    },
    {
      "inputs": [
        {
          "internalType": "uint256",
          "name": "",
          "type": "uint256"
        },
        {
          "internalType": "uint256",
          "name": "",
          "type": "uint256"
        }
      ],
      "name": "ticketTypes",
      "outputs": [
        {
          "internalType": "string",
          "name": "name",
          "type": "string"
        },
        {
          "internalType": "uint256",
          "name": "priceWei",
          "type": "uint256"
        },
        {
          "internalType": "uint256",
          "name": "maxSupply",
          "type": "uint256"
        },
        {
          "internalType": "uint256",
          "name": "sold",
          "type": "uint256"
        }
      ],
      "stateMutability": "view",
      "type": "function",
      "constant": true
    },
    {
      "inputs": [
        {
          "internalType": "address",
          "name": "",
          "type": "address"
        },
        {
          "internalType": "uint256",
          "name": "",
          "type": "uint256"
        }
      ],
      "name": "tokensOf",
      "outputs": [
        {
          "internalType": "uint256",
          "name": "",
          "type": "uint256"
        }
      ],
      "stateMutability": "view",
      "type": "function",
      "constant": true
    },
    {
      "inputs": [
        {
          "internalType": "string",
          "name": "title",
          "type": "string"
        },
        {
          "internalType": "address payable",
          "name": "seller",
          "type": "address"
        }
      ],
      "name": "createEvent",
      "outputs": [
        {
          "internalType": "uint256",
          "name": "eventId",
          "type": "uint256"
        }
      ],
      "stateMutability": "nonpayable",
      "type": "function"
    },
    {
      "inputs": [
        {
          "internalType": "uint256",
          "name": "eventId",
          "type": "uint256"
        },
        {
          "internalType": "address payable",
          "name": "seller",
          "type": "address"
        }
      ],
      "name": "setEventSeller",
      "outputs": [],
      "stateMutability": "nonpayable",
      "type": "function"
    },
    {
      "inputs": [
        {
          "internalType": "uint256",
          "name": "eventId",
          "type": "uint256"
        },
        {
          "internalType": "bool",
          "name": "active",
          "type": "bool"
        }
      ],
      "name": "setEventActive",
      "outputs": [],
      "stateMutability": "nonpayable",
      "type": "function"
    },
    {
      "inputs": [
        {
          "internalType": "uint256",
          "name": "eventId",
          "type": "uint256"
        },
        {
          "internalType": "string",
          "name": "name",
          "type": "string"
        },
        {
          "internalType": "uint256",
          "name": "priceWei",
          "type": "uint256"
        },
        {
          "internalType": "uint256",
          "name": "maxSupply",
          "type": "uint256"
        }
      ],
      "name": "addTicketType",
      "outputs": [
        {
          "internalType": "uint256",
          "name": "typeId",
          "type": "uint256"
        }
      ],
      "stateMutability": "nonpayable",
      "type": "function"
    },
    {
      "inputs": [
        {
          "internalType": "uint256",
          "name": "eventId",
          "type": "uint256"
        },
        {
          "internalType": "uint256",
          "name": "typeId",
          "type": "uint256"
        }
      ],
      "name": "buyTicket",
      "outputs": [],
      "stateMutability": "payable",
      "type": "function",
      "payable": true
    }
  ],
  "bytecode": "0x60806040523480156200001157600080fd5b50336000806101000a81548173ffffffffffffffffffffffffffffffffffffffff021916908373ffffffffffffffffffffffffffffffffffffffff160217905550620000996040518060400160405280600f81526020017f41636f7573746963204e69676874730000000000000000000000000000000000815250336200032560201b60201c565b50620000ed60006040518060400160405280601181526020017f47656e6572616c2041646d697373696f6e00000000000000000000000000000081525066038d7ea4c680006101f46200047860201b60201c565b506200014060006040518060400160405280600381526020017f564950000000000000000000000000000000000000000000000000000000000081525066071afd498d000060646200047860201b60201c565b50620001886040518060400160405280601481526020017f4e656f6e20447265616d7320466573746976616c000000000000000000000000815250336200032560201b60201c565b50620001dc60016040518060400160405280600881526020017f5374616e6461726400000000000000000000000000000000000000000000000081525066038d7ea4c680006103206200047860201b60201c565b506200022f60016040518060400160405280600781526020017f5072656d69756d0000000000000000000000000000000000000000000000000081525066071afd498d000060c86200047860201b60201c565b50620002776040518060400160405280601481526020017f43616d707573204361726e6976616c204c697665000000000000000000000000815250336200032560201b60201c565b50620002cb60026040518060400160405280600a81526020017f456e74727920506173730000000000000000000000000000000000000000000081525066038d7ea4c6800061012c6200047860201b60201c565b506200031e60026040518060400160405280600981526020017f46617374204c616e6500000000000000000000000000000000000000000000008152506605543df729c00060326200047860201b60201c565b5062000b34565b6000600154905060405180608001604052808481526020018373ffffffffffffffffffffffffffffffffffffffff168152602001600115158152602001600081525060026000838152602001908152602001600020600082015181600001908162000391919062000869565b5060208201518160010160006101000a81548173ffffffffffffffffffffffffffffffffffffffff021916908373ffffffffffffffffffffffffffffffffffffffff16021790555060408201518160010160146101000a81548160ff0219169083151502179055506060820151816002015590505060018060008282546200041a91906200097f565b925050819055508173ffffffffffffffffffffffffffffffffffffffff16817f40fb05b814a900c99fa0a76d919dfdeaf3389540e4ca70f97ba40ca9a38f3797856040516200046a919062000a49565b60405180910390a392915050565b60006002600086815260200190815260200160002060010160149054906101000a900460ff16620004e0576040517f08c379a0000000000000000000000000000000000000000000000000000000008152600401620004d79062000abd565b60405180910390fd5b6002600086815260200190815260200160002060020154905060405180608001604052808581526020018481526020018381526020016000815250600360008781526020019081526020016000206000838152602001908152602001600020600082015181600001908162000556919062000869565b506020820151816001015560408201518160020155606082015181600301559050506001600260008781526020019081526020016000206002016000828254620005a191906200097f565b9250508190555080857f766363e141a90ab2ab87c4d5ab572d5df3ac4b4e6cd8228f13b6a56b02d8c5c6868686604051620005df9392919062000af0565b60405180910390a3949350505050565b600081519050919050565b7f4e487b7100000000000000000000000000000000000000000000000000000000600052604160045260246000fd5b7f4e487b7100000000000000000000000000000000000000000000000000000000600052602260045260246000fd5b600060028204905060018216806200067157607f821691505b60208210810362000687576200068662000629565b5b50919050565b60008190508160005260206000209050919050565b60006020601f8301049050919050565b600082821b905092915050565b600060088302620006f17fffffffffffffffffffffffffffffffffffffffffffffffffffffffffffffffff82620006b2565b620006fd8683620006b2565b95508019841693508086168417925050509392505050565b6000819050919050565b6000819050919050565b60006200074a620007446200073e8462000715565b6200071f565b62000715565b9050919050565b6000819050919050565b620007668362000729565b6200077e620007758262000751565b848454620006bf565b825550505050565b600090565b6200079562000786565b620007a28184846200075b565b505050565b5b81811015620007ca57620007be6000826200078b565b600181019050620007a8565b5050565b601f8211156200081957620007e3816200068d565b620007ee84620006a2565b81016020851015620007fe578190505b620008166200080d85620006a2565b830182620007a7565b50505b505050565b600082821c905092915050565b60006200083e600019846008026200081e565b1980831691505092915050565b60006200085983836200082b565b9150826002028217905092915050565b6200087482620005ef565b67ffffffffffffffff81111562000890576200088f620005fa565b5b6200089c825462000658565b620008a9828285620007ce565b600060209050601f831160018114620008e15760008415620008cc578287015190505b620008d885826200084b565b86555062000948565b601f198416620008f1866200068d565b60005b828110156200091b57848901518255600182019150602085019450602081019050620008f4565b868310156200093b578489015162000937601f8916826200082b565b8355505b6001600288020188555050505b505050505050565b7f4e487b7100000000000000000000000000000000000000000000000000000000600052601160045260246000fd5b60006200098c8262000715565b9150620009998362000715565b9250828201905080821115620009b457620009b362000950565b5b92915050565b600082825260208201905092915050565b60005b83811015620009eb578082015181840152602081019050620009ce565b60008484015250505050565b6000601f19601f8301169050919050565b600062000a1582620005ef565b62000a218185620009ba565b935062000a33818560208601620009cb565b62000a3e81620009f7565b840191505092915050565b6000602082019050818103600083015262000a65818462000a08565b905092915050565b7f4576656e74206e6f742061637469766500000000000000000000000000000000600082015250565b600062000aa5601083620009ba565b915062000ab28262000a6d565b602082019050919050565b6000602082019050818103600083015262000ad88162000a96565b9050919050565b62000aea8162000715565b82525050565b6000606082019050818103600083015262000b0c818662000a08565b905062000b1d602083018562000adf565b62000b2c604083018462000adf565b949350505050565b611e418062000b446000396000f3fe6080604052600436106100a75760003560e01c806371be2e4a1161006457806371be2e4a146101ff57806375794a3c1461022a5780638da5cb5b14610255578063bb7d5d3f14610280578063d5f3c909146102a9578063fabe5a14146102e6576100a7565b80630b791430146100ac578063298ec208146100ec5780632e59900f1461010857806338a3dbae146101485780634653db16146101855780636352211e146101c2575b600080fd5b3480156100b857600080fd5b506100d360048036038101906100ce91906111fe565b61030f565b6040516100e39493929190611326565b60405180910390f35b61010660048036038101906101019190611372565b6103f4565b005b34801561011457600080fd5b5061012f600480360381019061012a9190611372565b610778565b60405161013f94939291906113b2565b60405180910390f35b34801561015457600080fd5b5061016f600480360381019061016a919061143c565b61083d565b60405161017c919061147c565b60405180910390f35b34801561019157600080fd5b506101ac60048036038101906101a791906114fc565b61086e565b6040516101b9919061147c565b60405180910390f35b3480156101ce57600080fd5b506101e960048036038101906101e491906111fe565b61095a565b6040516101f69190611593565b60405180910390f35b34801561020b57600080fd5b5061021461098d565b604051610221919061147c565b60405180910390f35b34801561023657600080fd5b5061023f610993565b60405161024c919061147c565b60405180910390f35b34801561026157600080fd5b5061026a610999565b6040516102779190611593565b60405180910390f35b34801561028c57600080fd5b506102a760048036038101906102a291906115da565b6109bd565b005b3480156102b557600080fd5b506102d060048036038101906102cb919061161a565b610c1e565b6040516102dd919061147c565b60405180910390f35b3480156102f257600080fd5b5061030d600480360381019061030891906116a6565b610d66565b005b600260205280600052604060002060009150905080600001805461033290611715565b80601f016020809104026020016040519081016040528092919081815260200182805461035e90611715565b80156103ab5780601f10610380576101008083540402835291602001916103ab565b820191906000526020600020905b81548152906001019060200180831161038e57829003601f168201915b5050505050908060010160009054906101000a900473ffffffffffffffffffffffffffffffffffffffff16908060010160149054906101000a900460ff16908060020154905084565b60006002600084815260200190815260200160002090508060010160149054906101000a900460ff1661045c576040517f08c379a000000000000000000000000000000000000000000000000000000000815260040161045390611792565b60405180910390fd5b6000600360008581526020019081526020016000206000848152602001908152602001600020905060008160020154116104cb576040517f08c379a00000000000000000000000000000000000000000000000000000000081526004016104c2906117fe565b60405180910390fd5b8060020154816003015410610515576040517f08c379a000000000000000000000000000000000000000000000000000000000815260040161050c9061186a565b60405180910390fd5b8060010154341461055b576040517f08c379a0000000000000000000000000000000000000000000000000000000008152600401610552906118d6565b60405180910390fd5b60018160030160008282546105709190611925565b92505081905550600060045490506001600460008282546105919190611925565b92505081905550336005600083815260200190815260200160002060006101000a81548173ffffffffffffffffffffffffffffffffffffffff021916908373ffffffffffffffffffffffffffffffffffffffff160217905550600660003373ffffffffffffffffffffffffffffffffffffffff1673ffffffffffffffffffffffffffffffffffffffff16815260200190815260200160002081908060018154018082558091505060019003906000526020600020016000909190919091505560008360010160009054906101000a900473ffffffffffffffffffffffffffffffffffffffff1673ffffffffffffffffffffffffffffffffffffffff163460405161069a9061198a565b60006040518083038185875af1925050503d80600081146106d7576040519150601f19603f3d011682016040523d82523d6000602084013e6106dc565b606091505b5050905080610720576040517f08c379a0000000000000000000000000000000000000000000000000000000008152600401610717906119eb565b60405180910390fd5b84863373ffffffffffffffffffffffffffffffffffffffff167f64bd16642eed00863590d7320e06c0f31bb0468a971feede4e13313e3b27922485604051610768919061147c565b60405180910390a4505050505050565b6003602052816000526040600020602052806000526040600020600091509150508060000180546107a890611715565b80601f01602080910402602001604051908101604052809291908181526020018280546107d490611715565b80156108215780601f106107f657610100808354040283529160200191610821565b820191906000526020600020905b81548152906001019060200180831161080457829003601f168201915b5050505050908060010154908060020154908060030154905084565b6006602052816000526040600020818154811061085957600080fd5b90600052602060002001600091509150505481565b60008060009054906101000a900473ffffffffffffffffffffffffffffffffffffffff1673ffffffffffffffffffffffffffffffffffffffff163373ffffffffffffffffffffffffffffffffffffffff16146108ff576040517f08c379a00000000000000000000000000000000000000000000000000000000081526004016108f690611a57565b60405180910390fd5b61094f8686868080601f016020809104026020016040519081016040528093929190818152602001838380828437600081840152601f19601f820116905080830192505050505050508585610f03565b905095945050505050565b60056020528060005260406000206000915054906101000a900473ffffffffffffffffffffffffffffffffffffffff1681565b60015481565b60045481565b60008054906101000a900473ffffffffffffffffffffffffffffffffffffffff1681565b60008054906101000a900473ffffffffffffffffffffffffffffffffffffffff1673ffffffffffffffffffffffffffffffffffffffff163373ffffffffffffffffffffffffffffffffffffffff1614610a4b576040517f08c379a0000000000000000000000000000000000000000000000000000000008152600401610a4290611a57565b60405180910390fd5b600073ffffffffffffffffffffffffffffffffffffffff166002600084815260200190815260200160002060010160009054906101000a900473ffffffffffffffffffffffffffffffffffffffff1673ffffffffffffffffffffffffffffffffffffffff1603610af0576040517f08c379a0000000000000000000000000000000000000000000000000000000008152600401610ae790611ac3565b60405180910390fd5b600073ffffffffffffffffffffffffffffffffffffffff168173ffffffffffffffffffffffffffffffffffffffff1614610b2a5780610b4c565b60008054906101000a900473ffffffffffffffffffffffffffffffffffffffff165b6002600084815260200190815260200160002060010160006101000a81548173ffffffffffffffffffffffffffffffffffffffff021916908373ffffffffffffffffffffffffffffffffffffffff1602179055506002600083815260200190815260200160002060010160009054906101000a900473ffffffffffffffffffffffffffffffffffffffff1673ffffffffffffffffffffffffffffffffffffffff16827f620a7d51b53ac3aa1fbcbd051e44ccf5b4b44c51d5d9b9c5f187b5a1182384fc60405160405180910390a35050565b60008060009054906101000a900473ffffffffffffffffffffffffffffffffffffffff1673ffffffffffffffffffffffffffffffffffffffff163373ffffffffffffffffffffffffffffffffffffffff1614610caf576040517f08c379a0000000000000000000000000000000000000000000000000000000008152600401610ca690611a57565b60405180910390fd5b60008073ffffffffffffffffffffffffffffffffffffffff168373ffffffffffffffffffffffffffffffffffffffff1614610cea5782610d0c565b60008054906101000a900473ffffffffffffffffffffffffffffffffffffffff165b9050610d5c85858080601f016020809104026020016040519081016040528093929190818152602001838380828437600081840152601f19601f8201169050808301925050505050505082611071565b9150509392505050565b60008054906101000a900473ffffffffffffffffffffffffffffffffffffffff1673ffffffffffffffffffffffffffffffffffffffff163373ffffffffffffffffffffffffffffffffffffffff1614610df4576040517f08c379a0000000000000000000000000000000000000000000000000000000008152600401610deb90611a57565b60405180910390fd5b600073ffffffffffffffffffffffffffffffffffffffff166002600084815260200190815260200160002060010160009054906101000a900473ffffffffffffffffffffffffffffffffffffffff1673ffffffffffffffffffffffffffffffffffffffff1603610e99576040517f08c379a0000000000000000000000000000000000000000000000000000000008152600401610e9090611ac3565b60405180910390fd5b806002600084815260200190815260200160002060010160146101000a81548160ff021916908315150217905550817f08af992dcd4fdd00691d366da8a8267301ef4df1d18ff1af4c336070990febb882604051610ef79190611ae3565b60405180910390a25050565b60006002600086815260200190815260200160002060010160149054906101000a900460ff16610f68576040517f08c379a0000000000000000000000000000000000000000000000000000000008152600401610f5f90611792565b60405180910390fd5b60026000868152602001908152602001600020600201549050604051806080016040528085815260200184815260200183815260200160008152506003600087815260200190815260200160002060008381526020019081526020016000206000820151816000019081610fdc9190611cd9565b5060208201518160010155604082015181600201556060820151816003015590505060016002600087815260200190815260200160002060020160008282546110259190611925565b9250508190555080857f766363e141a90ab2ab87c4d5ab572d5df3ac4b4e6cd8228f13b6a56b02d8c5c686868660405161106193929190611dab565b60405180910390a3949350505050565b6000600154905060405180608001604052808481526020018373ffffffffffffffffffffffffffffffffffffffff16815260200160011515815260200160008152506002600083815260200190815260200160002060008201518160000190816110db9190611cd9565b5060208201518160010160006101000a81548173ffffffffffffffffffffffffffffffffffffffff021916908373ffffffffffffffffffffffffffffffffffffffff16021790555060408201518160010160146101000a81548160ff0219169083151502179055506060820151816002015590505060018060008282546111629190611925565b925050819055508173ffffffffffffffffffffffffffffffffffffffff16817f40fb05b814a900c99fa0a76d919dfdeaf3389540e4ca70f97ba40ca9a38f3797856040516111b09190611de9565b60405180910390a392915050565b600080fd5b600080fd5b6000819050919050565b6111db816111c8565b81146111e657600080fd5b50565b6000813590506111f8816111d2565b92915050565b600060208284031215611214576112136111be565b5b6000611222848285016111e9565b91505092915050565b600081519050919050565b600082825260208201905092915050565b60005b8381101561126557808201518184015260208101905061124a565b60008484015250505050565b6000601f19601f8301169050919050565b600061128d8261122b565b6112978185611236565b93506112a7818560208601611247565b6112b081611271565b840191505092915050565b600073ffffffffffffffffffffffffffffffffffffffff82169050919050565b60006112e6826112bb565b9050919050565b6112f6816112db565b82525050565b60008115159050919050565b611311816112fc565b82525050565b611320816111c8565b82525050565b600060808201905081810360008301526113408187611282565b905061134f60208301866112ed565b61135c6040830185611308565b6113696060830184611317565b95945050505050565b60008060408385031215611389576113886111be565b5b6000611397858286016111e9565b92505060206113a8858286016111e9565b9150509250929050565b600060808201905081810360008301526113cc8187611282565b90506113db6020830186611317565b6113e86040830185611317565b6113f56060830184611317565b95945050505050565b6000611409826112bb565b9050919050565b611419816113fe565b811461142457600080fd5b50565b60008135905061143681611410565b92915050565b60008060408385031215611453576114526111be565b5b600061146185828601611427565b9250506020611472858286016111e9565b9150509250929050565b60006020820190506114916000830184611317565b92915050565b600080fd5b600080fd5b600080fd5b60008083601f8401126114bc576114bb611497565b5b8235905067ffffffffffffffff8111156114d9576114d861149c565b5b6020830191508360018202830111156114f5576114f46114a1565b5b9250929050565b600080600080600060808688031215611518576115176111be565b5b6000611526888289016111e9565b955050602086013567ffffffffffffffff811115611547576115466111c3565b5b611553888289016114a6565b94509450506040611566888289016111e9565b9250506060611577888289016111e9565b9150509295509295909350565b61158d816113fe565b82525050565b60006020820190506115a86000830184611584565b92915050565b6115b7816112db565b81146115c257600080fd5b50565b6000813590506115d4816115ae565b92915050565b600080604083850312156115f1576115f06111be565b5b60006115ff858286016111e9565b9250506020611610858286016115c5565b9150509250929050565b600080600060408486031215611633576116326111be565b5b600084013567ffffffffffffffff811115611651576116506111c3565b5b61165d868287016114a6565b93509350506020611670868287016115c5565b9150509250925092565b611683816112fc565b811461168e57600080fd5b50565b6000813590506116a08161167a565b92915050565b600080604083850312156116bd576116bc6111be565b5b60006116cb858286016111e9565b92505060206116dc85828601611691565b9150509250929050565b7f4e487b7100000000000000000000000000000000000000000000000000000000600052602260045260246000fd5b6000600282049050600182168061172d57607f821691505b6020821081036117405761173f6116e6565b5b50919050565b7f4576656e74206e6f742061637469766500000000000000000000000000000000600082015250565b600061177c601083611236565b915061178782611746565b602082019050919050565b600060208201905081810360008301526117ab8161176f565b9050919050565b7f54797065206e6f74206578697374000000000000000000000000000000000000600082015250565b60006117e8600e83611236565b91506117f3826117b2565b602082019050919050565b60006020820190508181036000830152611817816117db565b9050919050565b7f536f6c64206f7574000000000000000000000000000000000000000000000000600082015250565b6000611854600883611236565b915061185f8261181e565b602082019050919050565b6000602082019050818103600083015261188381611847565b9050919050565b7f57726f6e67207061796d656e7400000000000000000000000000000000000000600082015250565b60006118c0600d83611236565b91506118cb8261188a565b602082019050919050565b600060208201905081810360008301526118ef816118b3565b9050919050565b7f4e487b7100000000000000000000000000000000000000000000000000000000600052601160045260246000fd5b6000611930826111c8565b915061193b836111c8565b9250828201905080821115611953576119526118f6565b5b92915050565b600081905092915050565b50565b6000611974600083611959565b915061197f82611964565b600082019050919050565b600061199582611967565b9150819050919050565b7f5061796f7574206661696c656400000000000000000000000000000000000000600082015250565b60006119d5600d83611236565b91506119e08261199f565b602082019050919050565b60006020820190508181036000830152611a04816119c8565b9050919050565b7f4e6f74206f776e65720000000000000000000000000000000000000000000000600082015250565b6000611a41600983611236565b9150611a4c82611a0b565b602082019050919050565b60006020820190508181036000830152611a7081611a34565b9050919050565b7f4576656e74206d697373696e6700000000000000000000000000000000000000600082015250565b6000611aad600d83611236565b9150611ab882611a77565b602082019050919050565b60006020820190508181036000830152611adc81611aa0565b9050919050565b6000602082019050611af86000830184611308565b92915050565b7f4e487b7100000000000000000000000000000000000000000000000000000000600052604160045260246000fd5b60008190508160005260206000209050919050565b60006020601f8301049050919050565b600082821b905092915050565b600060088302611b8f7fffffffffffffffffffffffffffffffffffffffffffffffffffffffffffffffff82611b52565b611b998683611b52565b95508019841693508086168417925050509392505050565b6000819050919050565b6000611bd6611bd1611bcc846111c8565b611bb1565b6111c8565b9050919050565b6000819050919050565b611bf083611bbb565b611c04611bfc82611bdd565b848454611b5f565b825550505050565b600090565b611c19611c0c565b611c24818484611be7565b505050565b5b81811015611c4857611c3d600082611c11565b600181019050611c2a565b5050565b601f821115611c8d57611c5e81611b2d565b611c6784611b42565b81016020851015611c76578190505b611c8a611c8285611b42565b830182611c29565b50505b505050565b600082821c905092915050565b6000611cb060001984600802611c92565b1980831691505092915050565b6000611cc98383611c9f565b9150826002028217905092915050565b611ce28261122b565b67ffffffffffffffff811115611cfb57611cfa611afe565b5b611d058254611715565b611d10828285611c4c565b600060209050601f831160018114611d435760008415611d31578287015190505b611d3b8582611cbd565b865550611da3565b601f198416611d5186611b2d565b60005b82811015611d7957848901518255600182019150602085019450602081019050611d54565b86831015611d965784890151611d92601f891682611c9f565b8355505b6001600288020188555050505b505050505050565b60006060820190508181036000830152611dc58186611282565b9050611dd46020830185611317565b611de16040830184611317565b949350505050565b60006020820190508181036000830152611e038184611282565b90509291505056fea2646970667358221220a7219580e0861f019655872af2ef98a9279ed6d025d000bd685ab2784dd794ad64736f6c63430008130033",
  "immutableReferences": {},
  "source": "// SPDX-License-Identifier: MIT\npragma solidity ^0.8.19;\n\n/// @title TicketNFT - minimal ticketing NFT with per-event seller payouts\n/// @notice Prototype contract: not ERC721-compliant; optimized for simple school demo.\ncontract TicketNFT {\n    address public owner;\n\n    struct TicketType {\n        string name;\n        uint256 priceWei;\n        uint256 maxSupply;\n        uint256 sold;\n    }\n\n    struct EventInfo {\n        string title;\n        address payable seller;   // who receives funds for this event\n        bool active;\n        uint256 ticketTypeCount;\n    }\n\n    uint256 public eventCount;\n    mapping(uint256 => EventInfo) public events; // eventId -> event info\n    mapping(uint256 => mapping(uint256 => TicketType)) public ticketTypes; // eventId -> typeId -> ticket type\n\n    // Simple NFT ownership (minimal, not full ERC721 - enough for school prototype)\n    uint256 public nextTokenId;\n    mapping(uint256 => address) public ownerOf; // tokenId -> owner\n    mapping(address => uint256[]) public tokensOf; // owner -> tokenIds\n    // Allow multiple purchases per ticket type (no per-type lockout).\n\n    event EventCreated(uint256 indexed eventId, string title, address indexed seller);\n    event TicketTypeAdded(uint256 indexed eventId, uint256 indexed typeId, string name, uint256 priceWei, uint256 maxSupply);\n    event TicketMinted(address indexed buyer, uint256 indexed eventId, uint256 indexed typeId, uint256 tokenId);\n    event SellerChanged(uint256 indexed eventId, address indexed seller);\n    event EventStatus(uint256 indexed eventId, bool active);\n\n    modifier onlyOwner() {\n        require(msg.sender == owner, \"Not owner\");\n        _;\n    }\n\n    constructor() {\n        owner = msg.sender;\n\n        // Seed 3 demo events + types (so UI works immediately), owner is the default seller.\n        _createEvent(\"Acoustic Nights\", payable(msg.sender));\n        _addType(0, \"General Admission\", 0.001 ether, 500);\n        _addType(0, \"VIP\", 0.002 ether, 100);\n\n        _createEvent(\"Neon Dreams Festival\", payable(msg.sender));\n        _addType(1, \"Standard\", 0.001 ether, 800);\n        _addType(1, \"Premium\", 0.002 ether, 200);\n\n        _createEvent(\"Campus Carnival Live\", payable(msg.sender));\n        _addType(2, \"Entry Pass\", 0.001 ether, 300);\n        _addType(2, \"Fast Lane\", 0.0015 ether, 50);\n    }\n\n    /// @notice Create a new event; only owner can create. Seller receives payments.\n    function createEvent(string calldata title, address payable seller) external onlyOwner returns (uint256 eventId) {\n        address payable s = seller == address(0) ? payable(owner) : seller;\n        return _createEvent(title, s);\n    }\n\n    /// @notice Change seller payout wallet for an event.\n    function setEventSeller(uint256 eventId, address payable seller) external onlyOwner {\n        require(events[eventId].seller != address(0), \"Event missing\");\n        events[eventId].seller = seller == address(0) ? payable(owner) : seller;\n        emit SellerChanged(eventId, events[eventId].seller);\n    }\n\n    /// @notice Pause or resume an event.\n    function setEventActive(uint256 eventId, bool active) external onlyOwner {\n        require(events[eventId].seller != address(0), \"Event missing\");\n        events[eventId].active = active;\n        emit EventStatus(eventId, active);\n    }\n\n    /// @notice Add a ticket type for an event.\n    function addTicketType(\n        uint256 eventId,\n        string calldata name,\n        uint256 priceWei,\n        uint256 maxSupply\n    ) external onlyOwner returns (uint256 typeId) {\n        return _addType(eventId, name, priceWei, maxSupply);\n    }\n\n    /// @notice Buy a ticket; payment is forwarded to the event's seller immediately.\n    function buyTicket(uint256 eventId, uint256 typeId) external payable {\n        EventInfo storage e = events[eventId];\n        require(e.active, \"Event not active\");\n        TicketType storage t = ticketTypes[eventId][typeId];\n        require(t.maxSupply > 0, \"Type not exist\");\n        require(t.sold < t.maxSupply, \"Sold out\");\n        require(msg.value == t.priceWei, \"Wrong payment\");\n\n        t.sold += 1;\n\n        uint256 tokenId = nextTokenId;\n        nextTokenId += 1;\n        ownerOf[tokenId] = msg.sender;\n        tokensOf[msg.sender].push(tokenId);\n\n        // Payout seller\n        (bool ok,) = e.seller.call{ value: msg.value }(\"\");\n        require(ok, \"Payout failed\");\n\n        emit TicketMinted(msg.sender, eventId, typeId, tokenId);\n    }\n\n    // internal helpers\n    function _createEvent(string memory title, address payable seller) internal returns (uint256 eventId) {\n        eventId = eventCount;\n        events[eventId] = EventInfo({\n            title: title,\n            seller: seller,\n            active: true,\n            ticketTypeCount: 0\n        });\n        eventCount += 1;\n        emit EventCreated(eventId, title, seller);\n    }\n\n    function _addType(\n        uint256 eventId,\n        string memory name,\n        uint256 priceWei,\n        uint256 maxSupply\n    ) internal returns (uint256 typeId) {\n        require(events[eventId].active, \"Event not active\");\n        typeId = events[eventId].ticketTypeCount;\n        ticketTypes[eventId][typeId] = TicketType({\n            name: name,\n            priceWei: priceWei,\n            maxSupply: maxSupply,\n            sold: 0\n        });\n        events[eventId].ticketTypeCount += 1;\n        emit TicketTypeAdded(eventId, typeId, name, priceWei, maxSupply);\n    }\n}\n",
  "sourcePath": "C:\\C373\\FA CODES\\C373_FA_Team1\\blockchain\\contracts\\TicketNFT.sol",
  "compiler": {
    "name": "solc",
    "version": "0.8.19+commit.7dd6d404.Emscripten.clang"
  },
  "schemaVersion": "3.4.16",
  "updatedAt": "2026-01-23T08:08:56.597Z",
  "networkType": "ethereum",
  "devdoc": {
    "kind": "dev",
    "methods": {},
    "title": "TicketNFT - minimal ticketing NFT with per-event seller payouts",
    "version": 1
  },
  "userdoc": {
    "kind": "user",
    "methods": {
      "addTicketType(uint256,string,uint256,uint256)": {
        "notice": "Add a ticket type for an event."
      },
      "buyTicket(uint256,uint256)": {
        "notice": "Buy a ticket; payment is forwarded to the event's seller immediately."
      },
      "createEvent(string,address)": {
        "notice": "Create a new event; only owner can create. Seller receives payments."
      },
      "setEventActive(uint256,bool)": {
        "notice": "Pause or resume an event."
      },
      "setEventSeller(uint256,address)": {
        "notice": "Change seller payout wallet for an event."
      }
    },
    "notice": "Prototype contract: not ERC721-compliant; optimized for simple school demo.",
    "version": 1
  }
}