{
  "contractName": "TicketNFT",
  "abi": [
    {
      "inputs": [],
      "stateMutability": "nonpayable",
      "type": "constructor"
    },
    {
      "anonymous": false,
      "inputs": [
        {
          "indexed": true,
          "internalType": "address",
          "name": "escrowAddress",
          "type": "address"
        }
      ],
      "name": "EscrowSet",
      "type": "event"
    },
    {
      "anonymous": false,
      "inputs": [
        {
          "indexed": false,
          "internalType": "bool",
          "name": "enabled",
          "type": "bool"
        }
      ],
      "name": "EscrowToggled",
      "type": "event"
    },
    {
      "anonymous": false,
      "inputs": [
        {
          "indexed": true,
          "internalType": "uint256",
          "name": "eventId",
          "type": "uint256"
        },
        {
          "indexed": false,
          "internalType": "string",
          "name": "title",
          "type": "string"
        },
        {
          "indexed": true,
          "internalType": "address",
          "name": "seller",
          "type": "address"
        }
      ],
      "name": "EventCreated",
      "type": "event"
    },
    {
      "anonymous": false,
      "inputs": [
        {
          "indexed": true,
          "internalType": "uint256",
          "name": "eventId",
          "type": "uint256"
        },
        {
          "indexed": false,
          "internalType": "bool",
          "name": "active",
          "type": "bool"
        }
      ],
      "name": "EventStatus",
      "type": "event"
    },
    {
      "anonymous": false,
      "inputs": [
        {
          "indexed": true,
          "internalType": "uint256",
          "name": "eventId",
          "type": "uint256"
        },
        {
          "indexed": true,
          "internalType": "address",
          "name": "seller",
          "type": "address"
        }
      ],
      "name": "SellerChanged",
      "type": "event"
    },
    {
      "anonymous": false,
      "inputs": [
        {
          "indexed": true,
          "internalType": "address",
          "name": "buyer",
          "type": "address"
        },
        {
          "indexed": true,
          "internalType": "uint256",
          "name": "eventId",
          "type": "uint256"
        },
        {
          "indexed": true,
          "internalType": "uint256",
          "name": "typeId",
          "type": "uint256"
        },
        {
          "indexed": false,
          "internalType": "uint256",
          "name": "tokenId",
          "type": "uint256"
        }
      ],
      "name": "TicketMinted",
      "type": "event"
    },
    {
      "anonymous": false,
      "inputs": [
        {
          "indexed": true,
          "internalType": "address",
          "name": "buyer",
          "type": "address"
        },
        {
          "indexed": true,
          "internalType": "uint256",
          "name": "eventId",
          "type": "uint256"
        },
        {
          "indexed": true,
          "internalType": "uint256",
          "name": "typeId",
          "type": "uint256"
        },
        {
          "indexed": false,
          "internalType": "uint256",
          "name": "tokenId",
          "type": "uint256"
        },
        {
          "indexed": false,
          "internalType": "uint256",
          "name": "orderId",
          "type": "uint256"
        }
      ],
      "name": "TicketMintedWithEscrow",
      "type": "event"
    },
    {
      "anonymous": false,
      "inputs": [
        {
          "indexed": true,
          "internalType": "uint256",
          "name": "eventId",
          "type": "uint256"
        },
        {
          "indexed": true,
          "internalType": "uint256",
          "name": "typeId",
          "type": "uint256"
        },
        {
          "indexed": false,
          "internalType": "string",
          "name": "name",
          "type": "string"
        },
        {
          "indexed": false,
          "internalType": "uint256",
          "name": "priceWei",
          "type": "uint256"
        },
        {
          "indexed": false,
          "internalType": "uint256",
          "name": "maxSupply",
          "type": "uint256"
        }
      ],
      "name": "TicketTypeAdded",
      "type": "event"
    },
    {
      "inputs": [],
      "name": "escrow",
      "outputs": [
        {
          "internalType": "contract PaymentEscrow",
          "name": "",
          "type": "address"
        }
      ],
      "stateMutability": "view",
      "type": "function",
      "constant": true
    },
    {
      "inputs": [],
      "name": "escrowEnabled",
      "outputs": [
        {
          "internalType": "bool",
          "name": "",
          "type": "bool"
        }
      ],
      "stateMutability": "view",
      "type": "function",
      "constant": true
    },
    {
      "inputs": [],
      "name": "eventCount",
      "outputs": [
        {
          "internalType": "uint256",
          "name": "",
          "type": "uint256"
        }
      ],
      "stateMutability": "view",
      "type": "function",
      "constant": true
    },
    {
      "inputs": [
        {
          "internalType": "uint256",
          "name": "",
          "type": "uint256"
        }
      ],
      "name": "events",
      "outputs": [
        {
          "internalType": "string",
          "name": "title",
          "type": "string"
        },
        {
          "internalType": "address payable",
          "name": "seller",
          "type": "address"
        },
        {
          "internalType": "bool",
          "name": "active",
          "type": "bool"
        },
        {
          "internalType": "uint256",
          "name": "ticketTypeCount",
          "type": "uint256"
        }
      ],
      "stateMutability": "view",
      "type": "function",
      "constant": true
    },
    {
      "inputs": [],
      "name": "nextTokenId",
      "outputs": [
        {
          "internalType": "uint256",
          "name": "",
          "type": "uint256"
        }
      ],
      "stateMutability": "view",
      "type": "function",
      "constant": true
    },
    {
      "inputs": [],
      "name": "owner",
      "outputs": [
        {
          "internalType": "address",
          "name": "",
          "type": "address"
        }
      ],
      "stateMutability": "view",
      "type": "function",
      "constant": true
    },
    {
      "inputs": [
        {
          "internalType": "uint256",
          "name": "",
          "type": "uint256"
        }
      ],
      "name": "ownerOf",
      "outputs": [
        {
          "internalType": "address",
          "name": "",
          "type": "address"
        }
      ],
      "stateMutability": "view",
      "type": "function",
      "constant": true
    },
    {
      "inputs": [
        {
          "internalType": "uint256",
          "name": "",
          "type": "uint256"
        }
      ],
      "name": "ticketData",
      "outputs": [
        {
          "internalType": "uint256",
          "name": "eventId",
          "type": "uint256"
        },
        {
          "internalType": "uint256",
          "name": "ticketTypeId",
          "type": "uint256"
        },
        {
          "internalType": "uint256",
          "name": "orderId",
          "type": "uint256"
        },
        {
          "internalType": "uint256",
          "name": "purchaseTime",
          "type": "uint256"
        },
        {
          "internalType": "bool",
          "name": "isEscrow",
          "type": "bool"
        }
      ],
      "stateMutability": "view",
      "type": "function",
      "constant": true
    },
    {
      "inputs": [
        {
          "internalType": "uint256",
          "name": "",
          "type": "uint256"
        },
        {
          "internalType": "uint256",
          "name": "",
          "type": "uint256"
        }
      ],
      "name": "ticketTypes",
      "outputs": [
        {
          "internalType": "string",
          "name": "name",
          "type": "string"
        },
        {
          "internalType": "uint256",
          "name": "priceWei",
          "type": "uint256"
        },
        {
          "internalType": "uint256",
          "name": "maxSupply",
          "type": "uint256"
        },
        {
          "internalType": "uint256",
          "name": "sold",
          "type": "uint256"
        }
      ],
      "stateMutability": "view",
      "type": "function",
      "constant": true
    },
    {
      "inputs": [
        {
          "internalType": "address",
          "name": "",
          "type": "address"
        },
        {
          "internalType": "uint256",
          "name": "",
          "type": "uint256"
        }
      ],
      "name": "tokensOf",
      "outputs": [
        {
          "internalType": "uint256",
          "name": "",
          "type": "uint256"
        }
      ],
      "stateMutability": "view",
      "type": "function",
      "constant": true
    },
    {
      "inputs": [
        {
          "internalType": "string",
          "name": "title",
          "type": "string"
        },
        {
          "internalType": "address payable",
          "name": "seller",
          "type": "address"
        }
      ],
      "name": "createEvent",
      "outputs": [
        {
          "internalType": "uint256",
          "name": "eventId",
          "type": "uint256"
        }
      ],
      "stateMutability": "nonpayable",
      "type": "function"
    },
    {
      "inputs": [
        {
          "internalType": "uint256",
          "name": "eventId",
          "type": "uint256"
        },
        {
          "internalType": "address payable",
          "name": "seller",
          "type": "address"
        }
      ],
      "name": "setEventSeller",
      "outputs": [],
      "stateMutability": "nonpayable",
      "type": "function"
    },
    {
      "inputs": [
        {
          "internalType": "uint256",
          "name": "eventId",
          "type": "uint256"
        },
        {
          "internalType": "bool",
          "name": "active",
          "type": "bool"
        }
      ],
      "name": "setEventActive",
      "outputs": [],
      "stateMutability": "nonpayable",
      "type": "function"
    },
    {
      "inputs": [
        {
          "internalType": "uint256",
          "name": "eventId",
          "type": "uint256"
        },
        {
          "internalType": "string",
          "name": "name",
          "type": "string"
        },
        {
          "internalType": "uint256",
          "name": "priceWei",
          "type": "uint256"
        },
        {
          "internalType": "uint256",
          "name": "maxSupply",
          "type": "uint256"
        }
      ],
      "name": "addTicketType",
      "outputs": [
        {
          "internalType": "uint256",
          "name": "typeId",
          "type": "uint256"
        }
      ],
      "stateMutability": "nonpayable",
      "type": "function"
    },
    {
      "inputs": [
        {
          "internalType": "uint256",
          "name": "eventId",
          "type": "uint256"
        },
        {
          "internalType": "uint256",
          "name": "typeId",
          "type": "uint256"
        }
      ],
      "name": "buyTicketWithEscrow",
      "outputs": [
        {
          "internalType": "uint256",
          "name": "orderId",
          "type": "uint256"
        },
        {
          "internalType": "uint256",
          "name": "tokenId",
          "type": "uint256"
        }
      ],
      "stateMutability": "payable",
      "type": "function",
      "payable": true
    },
    {
      "inputs": [
        {
          "internalType": "uint256",
          "name": "eventId",
          "type": "uint256"
        },
        {
          "internalType": "uint256",
          "name": "typeId",
          "type": "uint256"
        }
      ],
      "name": "buyTicket",
      "outputs": [],
      "stateMutability": "payable",
      "type": "function",
      "payable": true
    },
    {
      "inputs": [
        {
          "internalType": "address",
          "name": "_escrow",
          "type": "address"
        }
      ],
      "name": "setEscrow",
      "outputs": [],
      "stateMutability": "nonpayable",
      "type": "function"
    },
    {
      "inputs": [
        {
          "internalType": "bool",
          "name": "enabled",
          "type": "bool"
        }
      ],
      "name": "setEscrowEnabled",
      "outputs": [],
      "stateMutability": "nonpayable",
      "type": "function"
    },
    {
      "inputs": [],
      "name": "getEscrowAddress",
      "outputs": [
        {
          "internalType": "address",
          "name": "",
          "type": "address"
        }
      ],
      "stateMutability": "view",
      "type": "function",
      "constant": true
    },
    {
      "inputs": [],
      "name": "isEscrowReady",
      "outputs": [
        {
          "internalType": "bool",
          "name": "",
          "type": "bool"
        }
      ],
      "stateMutability": "view",
      "type": "function",
      "constant": true
    },
    {
      "inputs": [
        {
          "internalType": "uint256",
          "name": "tokenId",
          "type": "uint256"
        }
      ],
      "name": "getTicketData",
      "outputs": [
        {
          "components": [
            {
              "internalType": "uint256",
              "name": "eventId",
              "type": "uint256"
            },
            {
              "internalType": "uint256",
              "name": "ticketTypeId",
              "type": "uint256"
            },
            {
              "internalType": "uint256",
              "name": "orderId",
              "type": "uint256"
            },
            {
              "internalType": "uint256",
              "name": "purchaseTime",
              "type": "uint256"
            },
            {
              "internalType": "bool",
              "name": "isEscrow",
              "type": "bool"
            }
          ],
          "internalType": "struct TicketNFT.TicketData",
          "name": "",
          "type": "tuple"
        }
      ],
      "stateMutability": "view",
      "type": "function",
      "constant": true
    },
    {
      "inputs": [
        {
          "internalType": "address",
          "name": "_owner",
          "type": "address"
        }
      ],
      "name": "getTokensOf",
      "outputs": [
        {
          "internalType": "uint256[]",
          "name": "",
          "type": "uint256[]"
        }
      ],
      "stateMutability": "view",
      "type": "function",
      "constant": true
    },
    {
      "inputs": [
        {
          "internalType": "uint256",
          "name": "eventId",
          "type": "uint256"
        },
        {
          "internalType": "uint256",
          "name": "typeId",
          "type": "uint256"
        }
      ],
      "name": "getTicketType",
      "outputs": [
        {
          "components": [
            {
              "internalType": "string",
              "name": "name",
              "type": "string"
            },
            {
              "internalType": "uint256",
              "name": "priceWei",
              "type": "uint256"
            },
            {
              "internalType": "uint256",
              "name": "maxSupply",
              "type": "uint256"
            },
            {
              "internalType": "uint256",
              "name": "sold",
              "type": "uint256"
            }
          ],
          "internalType": "struct TicketNFT.TicketType",
          "name": "",
          "type": "tuple"
        }
      ],
      "stateMutability": "view",
      "type": "function",
      "constant": true
    },
    {
      "inputs": [
        {
          "internalType": "uint256",
          "name": "eventId",
          "type": "uint256"
        }
      ],
      "name": "getEventInfo",
      "outputs": [
        {
          "components": [
            {
              "internalType": "string",
              "name": "title",
              "type": "string"
            },
            {
              "internalType": "address payable",
              "name": "seller",
              "type": "address"
            },
            {
              "internalType": "bool",
              "name": "active",
              "type": "bool"
            },
            {
              "internalType": "uint256",
              "name": "ticketTypeCount",
              "type": "uint256"
            }
          ],
          "internalType": "struct TicketNFT.EventInfo",
          "name": "",
          "type": "tuple"
        }
      ],
      "stateMutability": "view",
      "type": "function",
      "constant": true
    }
  ],
  "bytecode": "0x60806040526001805460ff60a01b1916600160a01b1790553480156200002457600080fd5b50600080546001600160a01b0319163390811790915560408051808201909152600f81526e41636f7573746963204e696768747360881b60208201526200006b9162000271565b50620000b360006040518060400160405280601181526020017023b2b732b930b61020b236b4b9b9b4b7b760791b81525066038d7ea4c680006101f46200036a60201b60201c565b50620000ec60006040518060400160405280600381526020016205649560ec1b81525066071afd498d000060646200036a60201b60201c565b5060408051808201909152601481527f4e656f6e20447265616d7320466573746976616c00000000000000000000000060208201526200012d903362000271565b506200016c60016040518060400160405280600881526020016714dd185b99185c9960c21b81525066038d7ea4c680006103206200036a60201b60201c565b50620001a96001604051806040016040528060078152602001665072656d69756d60c81b81525066071afd498d000060c86200036a60201b60201c565b5060408051808201909152601481527f43616d707573204361726e6976616c204c6976650000000000000000000000006020820152620001ea903362000271565b506200022b60026040518060400160405280600a815260200169456e747279205061737360b01b81525066038d7ea4c6800061012c6200036a60201b60201c565b506200026a60026040518060400160405280600981526020016846617374204c616e6560b81b8152506605543df729c00060326200036a60201b60201c565b50620006dd565b600254604080516080810182528481526001600160a01b03841660208083019190915260018284015260006060830181905284815260039091529190912081518190620002bf90826200055e565b5060208201516001808301805460408601511515600160a01b026001600160a81b03199091166001600160a01b0390941693909317929092179091556060909201516002918201558054600090620003199084906200062a565b92505081905550816001600160a01b0316817f40fb05b814a900c99fa0a76d919dfdeaf3389540e4ca70f97ba40ca9a38f3797856040516200035c91906200069a565b60405180910390a392915050565b600084815260036020526040812060010154600160a01b900460ff16620003ca5760405162461bcd60e51b815260206004820152601060248201526f4576656e74206e6f742061637469766560801b604482015260640160405180910390fd5b50600084815260036020908152604080832060020154815160808101835287815280840187905280830186905260608101859052888552600484528285208286529093529220815181906200042090826200055e565b5060208201518160010155604082015181600201556060820151816003015590505060016003600087815260200190815260200160002060020160008282546200046b91906200062a565b9250508190555080857f766363e141a90ab2ab87c4d5ab572d5df3ac4b4e6cd8228f13b6a56b02d8c5c6868686604051620004a993929190620006b6565b60405180910390a3949350505050565b634e487b7160e01b600052604160045260246000fd5b600181811c90821680620004e457607f821691505b6020821081036200050557634e487b7160e01b600052602260045260246000fd5b50919050565b601f8211156200055957600081815260208120601f850160051c81016020861015620005345750805b601f850160051c820191505b81811015620005555782815560010162000540565b5050505b505050565b81516001600160401b038111156200057a576200057a620004b9565b62000592816200058b8454620004cf565b846200050b565b602080601f831160018114620005ca5760008415620005b15750858301515b600019600386901b1c1916600185901b17855562000555565b600085815260208120601f198616915b82811015620005fb57888601518255948401946001909101908401620005da565b50858210156200061a5787850151600019600388901b60f8161c191681555b5050505050600190811b01905550565b808201808211156200064c57634e487b7160e01b600052601160045260246000fd5b92915050565b6000815180845260005b818110156200067a576020818501810151868301820152016200065c565b506000602082860101526020601f19601f83011685010191505092915050565b602081526000620006af602083018462000652565b9392505050565b606081526000620006cb606083018662000652565b60208301949094525060400152919050565b611d3280620006ed6000396000f3fe60806040526004361061014b5760003560e01c806371be2e4a116100b6578063d5f3c9091161006f578063d5f3c90914610453578063d9895e6a14610473578063db15c93c146104d7578063e2fdcc17146104f8578063f1e48a0414610518578063fabe5a141461054057600080fd5b806371be2e4a1461039a57806375794a3c146103b05780638da5cb5b146103c6578063a68d02ed146103e6578063bb7d5d3f14610413578063c10c35461461043357600080fd5b80632e59900f116101085780632e59900f1461024a57806338a3dbae1461027a578063394803fd146102a85780633dafcef01461031f5780634653db16146103445780636352211e1461036457600080fd5b80630986b210146101505780630b79143014610186578063122fd48a146101b65780631d645b12146101e8578063273ef38814610215578063298ec20814610237575b600080fd5b34801561015c57600080fd5b5061017061016b366004611742565b610560565b60405161017d9190611766565b60405180910390f35b34801561019257600080fd5b506101a66101a13660046117aa565b6105cc565b60405161017d9493929190611809565b3480156101c257600080fd5b506001546001600160a01b03165b6040516001600160a01b03909116815260200161017d565b3480156101f457600080fd5b506102086102033660046117aa565b61068c565b60405161017d9190611841565b34801561022157600080fd5b506102356102303660046118a6565b610790565b005b6102356102453660046118c1565b61081b565b34801561025657600080fd5b5061026a6102653660046118c1565b610ae5565b60405161017d94939291906118e3565b34801561028657600080fd5b5061029a610295366004611912565b610ba0565b60405190815260200161017d565b3480156102b457600080fd5b506102f56102c33660046117aa565b600860205260009081526040902080546001820154600283015460038401546004909401549293919290919060ff1685565b6040805195865260208601949094529284019190915260608301521515608082015260a00161017d565b34801561032b57600080fd5b50610334610bd1565b604051901515815260200161017d565b34801561035057600080fd5b5061029a61035f366004611987565b610bfc565b34801561037057600080fd5b506101d061037f3660046117aa565b6006602052600090815260409020546001600160a01b031681565b3480156103a657600080fd5b5061029a60025481565b3480156103bc57600080fd5b5061029a60055481565b3480156103d257600080fd5b506000546101d0906001600160a01b031681565b3480156103f257600080fd5b506104066104013660046118c1565b610cb9565b60405161017d91906119e5565b34801561041f57600080fd5b5061023561042e366004611a2b565b610dc0565b34801561043f57600080fd5b5061023561044e366004611742565b610ebc565b34801561045f57600080fd5b5061029a61046e366004611a5b565b610f7f565b34801561047f57600080fd5b5061049361048e3660046117aa565b610fe5565b60405161017d9190600060a0820190508251825260208301516020830152604083015160408301526060830151606083015260808301511515608083015292915050565b3480156104e357600080fd5b5060015461033490600160a01b900460ff1681565b34801561050457600080fd5b506001546101d0906001600160a01b031681565b61052b6105263660046118c1565b61106d565b6040805192835260208301919091520161017d565b34801561054c57600080fd5b5061023561055b366004611ab2565b61142b565b6001600160a01b0381166000908152600760209081526040918290208054835181840281018401909452808452606093928301828280156105c057602002820191906000526020600020905b8154815260200190600101908083116105ac575b50505050509050919050565b6003602052600090815260409020805481906105e790611ade565b80601f016020809104026020016040519081016040528092919081815260200182805461061390611ade565b80156106605780601f1061063557610100808354040283529160200191610660565b820191906000526020600020905b81548152906001019060200180831161064357829003601f168201915b50505050600183015460029093015491926001600160a01b03811692600160a01b90910460ff16915084565b604080516080810182526060808252600060208301819052928201839052810191909152600082815260036020526040908190208151608081019092528054829082906106d890611ade565b80601f016020809104026020016040519081016040528092919081815260200182805461070490611ade565b80156107515780601f1061072657610100808354040283529160200191610751565b820191906000526020600020905b81548152906001019060200180831161073457829003601f168201915b505050918352505060018201546001600160a01b0381166020830152600160a01b900460ff161515604082015260029091015460609091015292915050565b6000546001600160a01b031633146107c35760405162461bcd60e51b81526004016107ba90611b18565b60405180910390fd5b60018054821515600160a01b0260ff60a01b199091161790556040517f5d91bc2c8300c2c7f3725ccb56ebf289f4a46a731e37bac1479659b735aed38a9061081090831515815260200190565b60405180910390a150565b60008281526003602052604090206001810154600160a01b900460ff166108545760405162461bcd60e51b81526004016107ba90611b3b565b6000838152600460209081526040808320858452909152902060028101546108af5760405162461bcd60e51b815260206004820152600e60248201526d151e5c19481b9bdd08195e1a5cdd60921b60448201526064016107ba565b80600201548160030154106108f15760405162461bcd60e51b815260206004820152600860248201526714dbdb19081bdd5d60c21b60448201526064016107ba565b806001015434146109345760405162461bcd60e51b815260206004820152600d60248201526c15dc9bdb99c81c185e5b595b9d609a1b60448201526064016107ba565b60018160030160008282546109499190611b65565b9091555050600580549060019060006109628385611b65565b909155505060008181526006602090815260408083208054336001600160a01b0319909116811790915583526007825280832080546001818101835591855283852001859055815160a08101835289815280840189815281840186815242606084019081526080840188815289895260089097528588209351845591518385015551600283015551600382015592516004909301805460ff1916931515939093179092559085015490516001600160a01b039091169034908381818185875af1925050503d8060008114610a52576040519150601f19603f3d011682016040523d82523d6000602084013e610a57565b606091505b5050905080610a985760405162461bcd60e51b815260206004820152600d60248201526c14185e5bdd5d0819985a5b1959609a1b60448201526064016107ba565b8486336001600160a01b03167f64bd16642eed00863590d7320e06c0f31bb0468a971feede4e13313e3b27922485604051610ad591815260200190565b60405180910390a4505050505050565b6004602090815260009283526040808420909152908252902080548190610b0b90611ade565b80601f0160208091040260200160405190810160405280929190818152602001828054610b3790611ade565b8015610b845780601f10610b5957610100808354040283529160200191610b84565b820191906000526020600020905b815481529060010190602001808311610b6757829003601f168201915b5050505050908060010154908060020154908060030154905084565b60076020528160005260406000208181548110610bbc57600080fd5b90600052602060002001600091509150505481565b600154600090600160a01b900460ff168015610bf757506001546001600160a01b031615155b905090565b6000858152600360205260408120600101546001600160a01b0316331480610c2e57506000546001600160a01b031633145b610c6b5760405162461bcd60e51b815260206004820152600e60248201526d139bdd08185d5d1a1bdc9a5e995960921b60448201526064016107ba565b610caf8686868080601f0160208091040260200160405190810160405280939291908181526020018383808284376000920191909152508892508791506115169050565b9695505050505050565b610ce46040518060800160405280606081526020016000815260200160008152602001600081525090565b600083815260046020908152604080832085845290915290819020815160808101909252805482908290610d1790611ade565b80601f0160208091040260200160405190810160405280929190818152602001828054610d4390611ade565b8015610d905780601f10610d6557610100808354040283529160200191610d90565b820191906000526020600020905b815481529060010190602001808311610d7357829003601f168201915b50505050508152602001600182015481526020016002820154815260200160038201548152505090505b92915050565b6000546001600160a01b03163314610dea5760405162461bcd60e51b81526004016107ba90611b18565b6000828152600360205260409020600101546001600160a01b0316610e415760405162461bcd60e51b815260206004820152600d60248201526c4576656e74206d697373696e6760981b60448201526064016107ba565b6001600160a01b03811615610e565780610e63565b6000546001600160a01b03165b60008381526003602052604080822060010180546001600160a01b0319166001600160a01b039490941693841790555184917f620a7d51b53ac3aa1fbcbd051e44ccf5b4b44c51d5d9b9c5f187b5a1182384fc91a35050565b6000546001600160a01b03163314610ee65760405162461bcd60e51b81526004016107ba90611b18565b6001600160a01b038116610f355760405162461bcd60e51b8152602060048201526016602482015275496e76616c696420657363726f77206164647265737360501b60448201526064016107ba565b600180546001600160a01b0319166001600160a01b0383169081179091556040517fa585aec3a6cb0e1a084ed18c7638024e40cc3e3ea815166e2cb6fc17d7f1392b90600090a250565b6000806001600160a01b03831615610f975782610f99565b335b9050610fdc85858080601f016020809104026020016040519081016040528093929190818152602001838380828437600092019190915250859250611637915050565b95945050505050565b6110196040518060a00160405280600081526020016000815260200160008152602001600081526020016000151581525090565b50600090815260086020908152604091829020825160a081018452815481526001820154928101929092526002810154928201929092526003820154606082015260049091015460ff161515608082015290565b6001546000908190600160a01b900460ff166110c05760405162461bcd60e51b8152602060048201526012602482015271115cd8dc9bddc81b9bdd08195b98589b195960721b60448201526064016107ba565b6001546001600160a01b03166111095760405162461bcd60e51b815260206004820152600e60248201526d115cd8dc9bddc81b9bdd081cd95d60921b60448201526064016107ba565b60008481526003602052604090206001810154600160a01b900460ff166111425760405162461bcd60e51b81526004016107ba90611b3b565b60008581526004602090815260408083208784529091529020600281015461119d5760405162461bcd60e51b815260206004820152600e60248201526d151e5c19481b9bdd08195e1a5cdd60921b60448201526064016107ba565b80600201548160030154106111df5760405162461bcd60e51b815260206004820152600860248201526714dbdb19081bdd5d60c21b60448201526064016107ba565b806001015434146112225760405162461bcd60e51b815260206004820152600d60248201526c15dc9bdb99c81c185e5b595b9d609a1b60448201526064016107ba565b60018160030160008282546112379190611b65565b909155505060058054935060019060006112518387611b65565b9091555050600083815260066020908152604080832080546001600160a01b0319163390811790915583526007825280832080546001818101835591855292909320909101859055815491840154905163acfee8ed60e01b81526001600160a01b039182166004820152602481018990526044810188905291169063acfee8ed90349060640160206040518083038185885af11580156112f5573d6000803e3d6000fd5b50505050506040513d601f19601f8201168201806040525081019061131a9190611b86565b6040805160a0810182528881526020808201898152828401858152426060850190815260016080860181815260008c8152600890965294879020955186559251858401559051600285015551600384015590516004928301805460ff1916911515919091179055549151631d7fca3760e21b8152908101839052602481018690529195506001600160a01b0316906375ff28dc90604401600060405180830381600087803b1580156113cb57600080fd5b505af11580156113df573d6000803e3d6000fd5b5050604080518681526020810188905288935089925033917fe705ad00f04242f77b35524af8e5613688ab47188ecca693a3ea80be193d582b910160405180910390a450509250929050565b6000546001600160a01b031633146114555760405162461bcd60e51b81526004016107ba90611b18565b6000828152600360205260409020600101546001600160a01b03166114ac5760405162461bcd60e51b815260206004820152600d60248201526c4576656e74206d697373696e6760981b60448201526064016107ba565b600082815260036020526040908190206001018054831515600160a01b0260ff60a01b199091161790555182907f08af992dcd4fdd00691d366da8a8267301ef4df1d18ff1af4c336070990febb89061150a90841515815260200190565b60405180910390a25050565b600084815260036020526040812060010154600160a01b900460ff1661154e5760405162461bcd60e51b81526004016107ba90611b3b565b50600084815260036020908152604080832060020154815160808101835287815280840187905280830186905260608101859052888552600484528285208286529093529220815181906115a29082611c04565b5060208201518160010155604082015181600201556060820151816003015590505060016003600087815260200190815260200160002060020160008282546115eb9190611b65565b9250508190555080857f766363e141a90ab2ab87c4d5ab572d5df3ac4b4e6cd8228f13b6a56b02d8c5c686868660405161162793929190611cc4565b60405180910390a3949350505050565b600254604080516080810182528481526001600160a01b038416602080830191909152600182840152600060608301819052848152600390915291909120815181906116839082611c04565b5060208201516001808301805460408601511515600160a01b026001600160a81b03199091166001600160a01b03909416939093179290921790915560609092015160029182015580546000906116db908490611b65565b92505081905550816001600160a01b0316817f40fb05b814a900c99fa0a76d919dfdeaf3389540e4ca70f97ba40ca9a38f37978560405161171c9190611ce9565b60405180910390a392915050565b6001600160a01b038116811461173f57600080fd5b50565b60006020828403121561175457600080fd5b813561175f8161172a565b9392505050565b6020808252825182820181905260009190848201906040850190845b8181101561179e57835183529284019291840191600101611782565b50909695505050505050565b6000602082840312156117bc57600080fd5b5035919050565b6000815180845260005b818110156117e9576020818501810151868301820152016117cd565b506000602082860101526020601f19601f83011685010191505092915050565b60808152600061181c60808301876117c3565b6001600160a01b03959095166020830152509115156040830152606090910152919050565b60208152600082516080602084015261185d60a08401826117c3565b905060018060a01b036020850151166040840152604084015115156060840152606084015160808401528091505092915050565b803580151581146118a157600080fd5b919050565b6000602082840312156118b857600080fd5b61175f82611891565b600080604083850312156118d457600080fd5b50508035926020909101359150565b6080815260006118f660808301876117c3565b6020830195909552506040810192909252606090910152919050565b6000806040838503121561192557600080fd5b82356119308161172a565b946020939093013593505050565b60008083601f84011261195057600080fd5b50813567ffffffffffffffff81111561196857600080fd5b60208301915083602082850101111561198057600080fd5b9250929050565b60008060008060006080868803121561199f57600080fd5b85359450602086013567ffffffffffffffff8111156119bd57600080fd5b6119c98882890161193e565b9699909850959660408101359660609091013595509350505050565b602081526000825160806020840152611a0160a08401826117c3565b90506020840151604084015260408401516060840152606084015160808401528091505092915050565b60008060408385031215611a3e57600080fd5b823591506020830135611a508161172a565b809150509250929050565b600080600060408486031215611a7057600080fd5b833567ffffffffffffffff811115611a8757600080fd5b611a938682870161193e565b9094509250506020840135611aa78161172a565b809150509250925092565b60008060408385031215611ac557600080fd5b82359150611ad560208401611891565b90509250929050565b600181811c90821680611af257607f821691505b602082108103611b1257634e487b7160e01b600052602260045260246000fd5b50919050565b6020808252600990820152682737ba1037bbb732b960b91b604082015260600190565b60208082526010908201526f4576656e74206e6f742061637469766560801b604082015260600190565b80820180821115610dba57634e487b7160e01b600052601160045260246000fd5b600060208284031215611b9857600080fd5b5051919050565b634e487b7160e01b600052604160045260246000fd5b601f821115611bff57600081815260208120601f850160051c81016020861015611bdc5750805b601f850160051c820191505b81811015611bfb57828155600101611be8565b5050505b505050565b815167ffffffffffffffff811115611c1e57611c1e611b9f565b611c3281611c2c8454611ade565b84611bb5565b602080601f831160018114611c675760008415611c4f5750858301515b600019600386901b1c1916600185901b178555611bfb565b600085815260208120601f198616915b82811015611c9657888601518255948401946001909101908401611c77565b5085821015611cb45787850151600019600388901b60f8161c191681555b5050505050600190811b01905550565b606081526000611cd760608301866117c3565b60208301949094525060400152919050565b60208152600061175f60208301846117c356fea264697066735822122056b8a56ac057142d2e3283d5e28bcce8eece103056418bbc548aadc22f38d08c64736f6c63430008130033",
  "immutableReferences": {},
  "source": "// SPDX-License-Identifier: MIT\npragma solidity ^0.8.19;\n\nimport \"./PaymentEscrow.sol\";\n\n/// @title TicketNFT - minimal ticketing NFT with escrow payment system\n/// @notice Prototype contract with secure escrow payments for ticket purchases\ncontract TicketNFT {\n    address public owner;\n    PaymentEscrow public escrow;\n    bool public escrowEnabled = true;  // Toggle between escrow and direct payment\n\n    struct TicketType {\n        string name;\n        uint256 priceWei;\n        uint256 maxSupply;\n        uint256 sold;\n    }\n\n    struct EventInfo {\n        string title;\n        address payable seller;   // who receives funds for this event\n        bool active;\n        uint256 ticketTypeCount;\n    }\n\n    // Ticket metadata for NFT\n    struct TicketData {\n        uint256 eventId;\n        uint256 ticketTypeId;\n        uint256 orderId;      // Escrow order ID (0 if direct payment)\n        uint256 purchaseTime;\n        bool isEscrow;        // Whether purchased via escrow\n    }\n\n    uint256 public eventCount;\n    mapping(uint256 => EventInfo) public events; // eventId -> event info\n    mapping(uint256 => mapping(uint256 => TicketType)) public ticketTypes; // eventId -> typeId -> ticket type\n\n    // Simple NFT ownership (minimal, not full ERC721 - enough for school prototype)\n    uint256 public nextTokenId;\n    mapping(uint256 => address) public ownerOf; // tokenId -> owner\n    mapping(address => uint256[]) public tokensOf; // owner -> tokenIds\n    mapping(uint256 => TicketData) public ticketData; // tokenId -> ticket metadata\n\n    event EventCreated(uint256 indexed eventId, string title, address indexed seller);\n    event TicketTypeAdded(uint256 indexed eventId, uint256 indexed typeId, string name, uint256 priceWei, uint256 maxSupply);\n    event TicketMinted(address indexed buyer, uint256 indexed eventId, uint256 indexed typeId, uint256 tokenId);\n    event TicketMintedWithEscrow(address indexed buyer, uint256 indexed eventId, uint256 indexed typeId, uint256 tokenId, uint256 orderId);\n    event SellerChanged(uint256 indexed eventId, address indexed seller);\n    event EventStatus(uint256 indexed eventId, bool active);\n    event EscrowSet(address indexed escrowAddress);\n    event EscrowToggled(bool enabled);\n\n    modifier onlyOwner() {\n        require(msg.sender == owner, \"Not owner\");\n        _;\n    }\n\n    constructor() {\n        owner = msg.sender;\n\n        // Seed 3 demo events + types (so UI works immediately), owner is the default seller.\n        _createEvent(\"Acoustic Nights\", payable(msg.sender));\n        _addType(0, \"General Admission\", 0.001 ether, 500);\n        _addType(0, \"VIP\", 0.002 ether, 100);\n\n        _createEvent(\"Neon Dreams Festival\", payable(msg.sender));\n        _addType(1, \"Standard\", 0.001 ether, 800);\n        _addType(1, \"Premium\", 0.002 ether, 200);\n\n        _createEvent(\"Campus Carnival Live\", payable(msg.sender));\n        _addType(2, \"Entry Pass\", 0.001 ether, 300);\n        _addType(2, \"Fast Lane\", 0.0015 ether, 50);\n    }\n\n    /// @notice Create a new event; anyone can create. Seller receives payments.\n    function createEvent(string calldata title, address payable seller) external returns (uint256 eventId) {\n        address payable s = seller == address(0) ? payable(msg.sender) : seller;\n        return _createEvent(title, s);\n    }\n\n    /// @notice Change seller payout wallet for an event.\n    function setEventSeller(uint256 eventId, address payable seller) external onlyOwner {\n        require(events[eventId].seller != address(0), \"Event missing\");\n        events[eventId].seller = seller == address(0) ? payable(owner) : seller;\n        emit SellerChanged(eventId, events[eventId].seller);\n    }\n\n    /// @notice Pause or resume an event.\n    function setEventActive(uint256 eventId, bool active) external onlyOwner {\n        require(events[eventId].seller != address(0), \"Event missing\");\n        events[eventId].active = active;\n        emit EventStatus(eventId, active);\n    }\n\n    /// @notice Add a ticket type for an event. Only event seller or owner can add.\n    function addTicketType(\n        uint256 eventId,\n        string calldata name,\n        uint256 priceWei,\n        uint256 maxSupply\n    ) external returns (uint256 typeId) {\n        require(\n            events[eventId].seller == msg.sender || msg.sender == owner,\n            \"Not authorized\"\n        );\n        return _addType(eventId, name, priceWei, maxSupply);\n    }\n\n    /// @notice Buy a ticket with escrow - funds held until delivery confirmed\n    /// @param eventId The event ID\n    /// @param typeId The ticket type ID\n    /// @return orderId The escrow order ID\n    /// @return tokenId The minted NFT token ID\n    function buyTicketWithEscrow(uint256 eventId, uint256 typeId)\n        external\n        payable\n        returns (uint256 orderId, uint256 tokenId)\n    {\n        require(escrowEnabled, \"Escrow not enabled\");\n        require(address(escrow) != address(0), \"Escrow not set\");\n\n        EventInfo storage e = events[eventId];\n        require(e.active, \"Event not active\");\n        TicketType storage t = ticketTypes[eventId][typeId];\n        require(t.maxSupply > 0, \"Type not exist\");\n        require(t.sold < t.maxSupply, \"Sold out\");\n        require(msg.value == t.priceWei, \"Wrong payment\");\n\n        t.sold += 1;\n\n        // Mint NFT\n        tokenId = nextTokenId;\n        nextTokenId += 1;\n        ownerOf[tokenId] = msg.sender;\n        tokensOf[msg.sender].push(tokenId);\n\n        // Create escrow order - forward the payment to escrow contract\n        orderId = escrow.createOrder{value: msg.value}(\n            e.seller,\n            eventId,\n            typeId\n        );\n\n        // Store ticket metadata\n        ticketData[tokenId] = TicketData({\n            eventId: eventId,\n            ticketTypeId: typeId,\n            orderId: orderId,\n            purchaseTime: block.timestamp,\n            isEscrow: true\n        });\n\n        // Notify escrow about the minted token\n        escrow.setTicketMinted(orderId, tokenId);\n\n        emit TicketMintedWithEscrow(msg.sender, eventId, typeId, tokenId, orderId);\n    }\n\n    /// @notice Buy a ticket; payment is forwarded to the event's seller immediately (legacy mode)\n    function buyTicket(uint256 eventId, uint256 typeId) external payable {\n        EventInfo storage e = events[eventId];\n        require(e.active, \"Event not active\");\n        TicketType storage t = ticketTypes[eventId][typeId];\n        require(t.maxSupply > 0, \"Type not exist\");\n        require(t.sold < t.maxSupply, \"Sold out\");\n        require(msg.value == t.priceWei, \"Wrong payment\");\n\n        t.sold += 1;\n\n        uint256 tokenId = nextTokenId;\n        nextTokenId += 1;\n        ownerOf[tokenId] = msg.sender;\n        tokensOf[msg.sender].push(tokenId);\n\n        // Store ticket metadata (no escrow)\n        ticketData[tokenId] = TicketData({\n            eventId: eventId,\n            ticketTypeId: typeId,\n            orderId: 0,\n            purchaseTime: block.timestamp,\n            isEscrow: false\n        });\n\n        // Payout seller\n        (bool ok,) = e.seller.call{ value: msg.value }(\"\");\n        require(ok, \"Payout failed\");\n\n        emit TicketMinted(msg.sender, eventId, typeId, tokenId);\n    }\n\n    // ============ Escrow Management ============\n\n    /// @notice Set the escrow contract address\n    function setEscrow(address _escrow) external onlyOwner {\n        require(_escrow != address(0), \"Invalid escrow address\");\n        escrow = PaymentEscrow(_escrow);\n        emit EscrowSet(_escrow);\n    }\n\n    /// @notice Enable or disable escrow payments\n    function setEscrowEnabled(bool enabled) external onlyOwner {\n        escrowEnabled = enabled;\n        emit EscrowToggled(enabled);\n    }\n\n    /// @notice Get escrow contract address\n    function getEscrowAddress() external view returns (address) {\n        return address(escrow);\n    }\n\n    /// @notice Check if escrow is enabled and configured\n    function isEscrowReady() external view returns (bool) {\n        return escrowEnabled && address(escrow) != address(0);\n    }\n\n    // ============ View Functions ============\n\n    /// @notice Get ticket metadata\n    function getTicketData(uint256 tokenId) external view returns (TicketData memory) {\n        return ticketData[tokenId];\n    }\n\n    /// @notice Get all tokens owned by an address\n    function getTokensOf(address _owner) external view returns (uint256[] memory) {\n        return tokensOf[_owner];\n    }\n\n    /// @notice Get ticket type info\n    function getTicketType(uint256 eventId, uint256 typeId) external view returns (TicketType memory) {\n        return ticketTypes[eventId][typeId];\n    }\n\n    /// @notice Get event info\n    function getEventInfo(uint256 eventId) external view returns (EventInfo memory) {\n        return events[eventId];\n    }\n\n    // internal helpers\n    function _createEvent(string memory title, address payable seller) internal returns (uint256 eventId) {\n        eventId = eventCount;\n        events[eventId] = EventInfo({\n            title: title,\n            seller: seller,\n            active: true,\n            ticketTypeCount: 0\n        });\n        eventCount += 1;\n        emit EventCreated(eventId, title, seller);\n    }\n\n    function _addType(\n        uint256 eventId,\n        string memory name,\n        uint256 priceWei,\n        uint256 maxSupply\n    ) internal returns (uint256 typeId) {\n        require(events[eventId].active, \"Event not active\");\n        typeId = events[eventId].ticketTypeCount;\n        ticketTypes[eventId][typeId] = TicketType({\n            name: name,\n            priceWei: priceWei,\n            maxSupply: maxSupply,\n            sold: 0\n        });\n        events[eventId].ticketTypeCount += 1;\n        emit TicketTypeAdded(eventId, typeId, name, priceWei, maxSupply);\n    }\n}\n",
  "sourcePath": "C:\\C373\\FA CODES\\C373_FA_Team1\\blockchain\\contracts\\TicketNFT.sol",
  "compiler": {
    "name": "solc",
    "version": "0.8.19+commit.7dd6d404.Emscripten.clang"
  },
  "schemaVersion": "3.4.16",
  "updatedAt": "2026-01-27T05:25:49.796Z",
  "networkType": "ethereum",
  "devdoc": {
    "kind": "dev",
    "methods": {
      "buyTicketWithEscrow(uint256,uint256)": {
        "params": {
          "eventId": "The event ID",
          "typeId": "The ticket type ID"
        },
        "returns": {
          "orderId": "The escrow order ID",
          "tokenId": "The minted NFT token ID"
        }
      }
    },
    "title": "TicketNFT - minimal ticketing NFT with escrow payment system",
    "version": 1
  },
  "userdoc": {
    "kind": "user",
    "methods": {
      "addTicketType(uint256,string,uint256,uint256)": {
        "notice": "Add a ticket type for an event. Only event seller or owner can add."
      },
      "buyTicket(uint256,uint256)": {
        "notice": "Buy a ticket; payment is forwarded to the event's seller immediately (legacy mode)"
      },
      "buyTicketWithEscrow(uint256,uint256)": {
        "notice": "Buy a ticket with escrow - funds held until delivery confirmed"
      },
      "createEvent(string,address)": {
        "notice": "Create a new event; anyone can create. Seller receives payments."
      },
      "getEscrowAddress()": {
        "notice": "Get escrow contract address"
      },
      "getEventInfo(uint256)": {
        "notice": "Get event info"
      },
      "getTicketData(uint256)": {
        "notice": "Get ticket metadata"
      },
      "getTicketType(uint256,uint256)": {
        "notice": "Get ticket type info"
      },
      "getTokensOf(address)": {
        "notice": "Get all tokens owned by an address"
      },
      "isEscrowReady()": {
        "notice": "Check if escrow is enabled and configured"
      },
      "setEscrow(address)": {
        "notice": "Set the escrow contract address"
      },
      "setEscrowEnabled(bool)": {
        "notice": "Enable or disable escrow payments"
      },
      "setEventActive(uint256,bool)": {
        "notice": "Pause or resume an event."
      },
      "setEventSeller(uint256,address)": {
        "notice": "Change seller payout wallet for an event."
      }
    },
    "notice": "Prototype contract with secure escrow payments for ticket purchases",
    "version": 1
  }
}