{
  "contractName": "TicketNFT",
  "abi": [
    {
      "inputs": [],
      "stateMutability": "nonpayable",
      "type": "constructor"
    },
    {
      "anonymous": false,
      "inputs": [
        {
          "indexed": true,
          "internalType": "uint256",
          "name": "eventId",
          "type": "uint256"
        },
        {
          "indexed": false,
          "internalType": "string",
          "name": "title",
          "type": "string"
        }
      ],
      "name": "EventCreated",
      "type": "event"
    },
    {
      "anonymous": false,
      "inputs": [
        {
          "indexed": true,
          "internalType": "address",
          "name": "buyer",
          "type": "address"
        },
        {
          "indexed": true,
          "internalType": "uint256",
          "name": "eventId",
          "type": "uint256"
        },
        {
          "indexed": true,
          "internalType": "uint256",
          "name": "typeId",
          "type": "uint256"
        },
        {
          "indexed": false,
          "internalType": "uint256",
          "name": "tokenId",
          "type": "uint256"
        }
      ],
      "name": "TicketMinted",
      "type": "event"
    },
    {
      "anonymous": false,
      "inputs": [
        {
          "indexed": true,
          "internalType": "uint256",
          "name": "eventId",
          "type": "uint256"
        },
        {
          "indexed": true,
          "internalType": "uint256",
          "name": "typeId",
          "type": "uint256"
        },
        {
          "indexed": false,
          "internalType": "string",
          "name": "name",
          "type": "string"
        },
        {
          "indexed": false,
          "internalType": "uint256",
          "name": "priceWei",
          "type": "uint256"
        },
        {
          "indexed": false,
          "internalType": "uint256",
          "name": "maxSupply",
          "type": "uint256"
        }
      ],
      "name": "TicketTypeAdded",
      "type": "event"
    },
    {
      "inputs": [],
      "name": "eventCount",
      "outputs": [
        {
          "internalType": "uint256",
          "name": "",
          "type": "uint256"
        }
      ],
      "stateMutability": "view",
      "type": "function",
      "constant": true
    },
    {
      "inputs": [
        {
          "internalType": "uint256",
          "name": "",
          "type": "uint256"
        }
      ],
      "name": "events",
      "outputs": [
        {
          "internalType": "string",
          "name": "title",
          "type": "string"
        },
        {
          "internalType": "bool",
          "name": "active",
          "type": "bool"
        },
        {
          "internalType": "uint256",
          "name": "ticketTypeCount",
          "type": "uint256"
        }
      ],
      "stateMutability": "view",
      "type": "function",
      "constant": true
    },
    {
      "inputs": [
        {
          "internalType": "address",
          "name": "",
          "type": "address"
        },
        {
          "internalType": "uint256",
          "name": "",
          "type": "uint256"
        },
        {
          "internalType": "uint256",
          "name": "",
          "type": "uint256"
        }
      ],
      "name": "hasBought",
      "outputs": [
        {
          "internalType": "bool",
          "name": "",
          "type": "bool"
        }
      ],
      "stateMutability": "view",
      "type": "function",
      "constant": true
    },
    {
      "inputs": [],
      "name": "nextTokenId",
      "outputs": [
        {
          "internalType": "uint256",
          "name": "",
          "type": "uint256"
        }
      ],
      "stateMutability": "view",
      "type": "function",
      "constant": true
    },
    {
      "inputs": [],
      "name": "owner",
      "outputs": [
        {
          "internalType": "address",
          "name": "",
          "type": "address"
        }
      ],
      "stateMutability": "view",
      "type": "function",
      "constant": true
    },
    {
      "inputs": [
        {
          "internalType": "uint256",
          "name": "",
          "type": "uint256"
        }
      ],
      "name": "ownerOf",
      "outputs": [
        {
          "internalType": "address",
          "name": "",
          "type": "address"
        }
      ],
      "stateMutability": "view",
      "type": "function",
      "constant": true
    },
    {
      "inputs": [
        {
          "internalType": "uint256",
          "name": "",
          "type": "uint256"
        },
        {
          "internalType": "uint256",
          "name": "",
          "type": "uint256"
        }
      ],
      "name": "ticketTypes",
      "outputs": [
        {
          "internalType": "string",
          "name": "name",
          "type": "string"
        },
        {
          "internalType": "uint256",
          "name": "priceWei",
          "type": "uint256"
        },
        {
          "internalType": "uint256",
          "name": "maxSupply",
          "type": "uint256"
        },
        {
          "internalType": "uint256",
          "name": "sold",
          "type": "uint256"
        }
      ],
      "stateMutability": "view",
      "type": "function",
      "constant": true
    },
    {
      "inputs": [
        {
          "internalType": "address",
          "name": "",
          "type": "address"
        },
        {
          "internalType": "uint256",
          "name": "",
          "type": "uint256"
        }
      ],
      "name": "tokensOf",
      "outputs": [
        {
          "internalType": "uint256",
          "name": "",
          "type": "uint256"
        }
      ],
      "stateMutability": "view",
      "type": "function",
      "constant": true
    },
    {
      "inputs": [
        {
          "internalType": "string",
          "name": "title",
          "type": "string"
        }
      ],
      "name": "createEvent",
      "outputs": [
        {
          "internalType": "uint256",
          "name": "eventId",
          "type": "uint256"
        }
      ],
      "stateMutability": "nonpayable",
      "type": "function"
    },
    {
      "inputs": [
        {
          "internalType": "uint256",
          "name": "eventId",
          "type": "uint256"
        },
        {
          "internalType": "string",
          "name": "name",
          "type": "string"
        },
        {
          "internalType": "uint256",
          "name": "priceWei",
          "type": "uint256"
        },
        {
          "internalType": "uint256",
          "name": "maxSupply",
          "type": "uint256"
        }
      ],
      "name": "addTicketType",
      "outputs": [
        {
          "internalType": "uint256",
          "name": "typeId",
          "type": "uint256"
        }
      ],
      "stateMutability": "nonpayable",
      "type": "function"
    },
    {
      "inputs": [
        {
          "internalType": "uint256",
          "name": "eventId",
          "type": "uint256"
        },
        {
          "internalType": "uint256",
          "name": "typeId",
          "type": "uint256"
        }
      ],
      "name": "buyTicket",
      "outputs": [],
      "stateMutability": "payable",
      "type": "function",
      "payable": true
    },
    {
      "inputs": [],
      "name": "withdraw",
      "outputs": [],
      "stateMutability": "nonpayable",
      "type": "function"
    }
  ],
  "bytecode": "0x60806040523480156200001157600080fd5b50336000806101000a81548173ffffffffffffffffffffffffffffffffffffffff021916908373ffffffffffffffffffffffffffffffffffffffff160217905550620000986040518060400160405280600f81526020017f41636f7573746963204e696768747300000000000000000000000000000000008152506200032260201b60201c565b50620000ec60006040518060400160405280601181526020017f47656e6572616c2041646d697373696f6e00000000000000000000000000000081525066038d7ea4c680006101f4620003fa60201b60201c565b506200013f60006040518060400160405280600381526020017f564950000000000000000000000000000000000000000000000000000000000081525066071afd498d00006064620003fa60201b60201c565b50620001866040518060400160405280601481526020017f4e656f6e20447265616d7320466573746976616c0000000000000000000000008152506200032260201b60201c565b50620001da60016040518060400160405280600881526020017f5374616e6461726400000000000000000000000000000000000000000000000081525066038d7ea4c68000610320620003fa60201b60201c565b506200022d60016040518060400160405280600781526020017f5072656d69756d0000000000000000000000000000000000000000000000000081525066071afd498d000060c8620003fa60201b60201c565b50620002746040518060400160405280601481526020017f43616d707573204361726e6976616c204c6976650000000000000000000000008152506200032260201b60201c565b50620002c860026040518060400160405280600a81526020017f456e74727920506173730000000000000000000000000000000000000000000081525066038d7ea4c6800061012c620003fa60201b60201c565b506200031b60026040518060400160405280600981526020017f46617374204c616e6500000000000000000000000000000000000000000000008152506605543df729c0006032620003fa60201b60201c565b5062000ab6565b6000600154905060405180606001604052808381526020016001151581526020016000815250600260008381526020019081526020016000206000820151816000019081620003729190620007eb565b5060208201518160010160006101000a81548160ff021916908315150217905550604082015181600201559050506001806000828254620003b4919062000901565b92505081905550807f9ce3d6db707bca4ba0eabed8fba1e2c013a1c0bc1132a764170a7854d198c73d83604051620003ed9190620009cb565b60405180910390a2919050565b60006002600086815260200190815260200160002060010160009054906101000a900460ff1662000462576040517f08c379a0000000000000000000000000000000000000000000000000000000008152600401620004599062000a3f565b60405180910390fd5b60026000868152602001908152602001600020600201549050604051806080016040528085815260200184815260200183815260200160008152506003600087815260200190815260200160002060008381526020019081526020016000206000820151816000019081620004d89190620007eb565b50602082015181600101556040820151816002015560608201518160030155905050600160026000878152602001908152602001600020600201600082825462000523919062000901565b9250508190555080857f766363e141a90ab2ab87c4d5ab572d5df3ac4b4e6cd8228f13b6a56b02d8c5c6868686604051620005619392919062000a72565b60405180910390a3949350505050565b600081519050919050565b7f4e487b7100000000000000000000000000000000000000000000000000000000600052604160045260246000fd5b7f4e487b7100000000000000000000000000000000000000000000000000000000600052602260045260246000fd5b60006002820490506001821680620005f357607f821691505b602082108103620006095762000608620005ab565b5b50919050565b60008190508160005260206000209050919050565b60006020601f8301049050919050565b600082821b905092915050565b600060088302620006737fffffffffffffffffffffffffffffffffffffffffffffffffffffffffffffffff8262000634565b6200067f868362000634565b95508019841693508086168417925050509392505050565b6000819050919050565b6000819050919050565b6000620006cc620006c6620006c08462000697565b620006a1565b62000697565b9050919050565b6000819050919050565b620006e883620006ab565b62000700620006f782620006d3565b84845462000641565b825550505050565b600090565b6200071762000708565b62000724818484620006dd565b505050565b5b818110156200074c57620007406000826200070d565b6001810190506200072a565b5050565b601f8211156200079b5762000765816200060f565b620007708462000624565b8101602085101562000780578190505b620007986200078f8562000624565b83018262000729565b50505b505050565b600082821c905092915050565b6000620007c060001984600802620007a0565b1980831691505092915050565b6000620007db8383620007ad565b9150826002028217905092915050565b620007f68262000571565b67ffffffffffffffff8111156200081257620008116200057c565b5b6200081e8254620005da565b6200082b82828562000750565b600060209050601f8311600181146200086357600084156200084e578287015190505b6200085a8582620007cd565b865550620008ca565b601f19841662000873866200060f565b60005b828110156200089d5784890151825560018201915060208501945060208101905062000876565b86831015620008bd5784890151620008b9601f891682620007ad565b8355505b6001600288020188555050505b505050505050565b7f4e487b7100000000000000000000000000000000000000000000000000000000600052601160045260246000fd5b60006200090e8262000697565b91506200091b8362000697565b9250828201905080821115620009365762000935620008d2565b5b92915050565b600082825260208201905092915050565b60005b838110156200096d57808201518184015260208101905062000950565b60008484015250505050565b6000601f19601f8301169050919050565b6000620009978262000571565b620009a381856200093c565b9350620009b58185602086016200094d565b620009c08162000979565b840191505092915050565b60006020820190508181036000830152620009e781846200098a565b905092915050565b7f4576656e74206e6f742061637469766500000000000000000000000000000000600082015250565b600062000a276010836200093c565b915062000a3482620009ef565b602082019050919050565b6000602082019050818103600083015262000a5a8162000a18565b9050919050565b62000a6c8162000697565b82525050565b6000606082019050818103600083015262000a8e81866200098a565b905062000a9f602083018562000a61565b62000aae604083018462000a61565b949350505050565b611a6c8062000ac66000396000f3fe6080604052600436106100a75760003560e01c80634653db16116100645780634653db16146101d85780636352211e1461021557806371be2e4a1461025257806375794a3c1461027d5780638da5cb5b146102a85780639bc2bc71146102d3576100a7565b80630b791430146100ac578063298ec208146100eb5780632e59900f1461010757806334e275a81461014757806338a3dbae146101845780633ccfd60b146101c1575b600080fd5b3480156100b857600080fd5b506100d360048036038101906100ce9190610ef0565b610310565b6040516100e293929190610fd7565b60405180910390f35b61010560048036038101906101009190611015565b6103cf565b005b34801561011357600080fd5b5061012e60048036038101906101299190611015565b6107ab565b60405161013e9493929190611055565b60405180910390f35b34801561015357600080fd5b5061016e600480360381019061016991906110ff565b610870565b60405161017b9190611152565b60405180910390f35b34801561019057600080fd5b506101ab60048036038101906101a6919061116d565b6108ac565b6040516101b891906111ad565b60405180910390f35b3480156101cd57600080fd5b506101d66108dd565b005b3480156101e457600080fd5b506101ff60048036038101906101fa919061122d565b610a3b565b60405161020c91906111ad565b60405180910390f35b34801561022157600080fd5b5061023c60048036038101906102379190610ef0565b610b27565b60405161024991906112c4565b60405180910390f35b34801561025e57600080fd5b50610267610b5a565b60405161027491906111ad565b60405180910390f35b34801561028957600080fd5b50610292610b60565b60405161029f91906111ad565b60405180910390f35b3480156102b457600080fd5b506102bd610b66565b6040516102ca91906112c4565b60405180910390f35b3480156102df57600080fd5b506102fa60048036038101906102f591906112df565b610b8a565b60405161030791906111ad565b60405180910390f35b60026020528060005260406000206000915090508060000180546103339061135b565b80601f016020809104026020016040519081016040528092919081815260200182805461035f9061135b565b80156103ac5780601f10610381576101008083540402835291602001916103ac565b820191906000526020600020905b81548152906001019060200180831161038f57829003601f168201915b5050505050908060010160009054906101000a900460ff16908060020154905083565b60006002600084815260200190815260200160002090508060010160009054906101000a900460ff16610437576040517f08c379a000000000000000000000000000000000000000000000000000000000815260040161042e906113d8565b60405180910390fd5b6000600360008581526020019081526020016000206000848152602001908152602001600020905060008160020154116104a6576040517f08c379a000000000000000000000000000000000000000000000000000000000815260040161049d90611444565b60405180910390fd5b80600201548160030154106104f0576040517f08c379a00000000000000000000000000000000000000000000000000000000081526004016104e7906114b0565b60405180910390fd5b80600101543414610536576040517f08c379a000000000000000000000000000000000000000000000000000000000815260040161052d9061151c565b60405180910390fd5b600760003373ffffffffffffffffffffffffffffffffffffffff1673ffffffffffffffffffffffffffffffffffffffff1681526020019081526020016000206000858152602001908152602001600020600084815260200190815260200160002060009054906101000a900460ff16156105e5576040517f08c379a00000000000000000000000000000000000000000000000000000000081526004016105dc90611588565b60405180910390fd5b6001600760003373ffffffffffffffffffffffffffffffffffffffff1673ffffffffffffffffffffffffffffffffffffffff1681526020019081526020016000206000868152602001908152602001600020600085815260200190815260200160002060006101000a81548160ff021916908315150217905550600181600301600082825461067491906115d7565b925050819055506000600454905060016004600082825461069591906115d7565b92505081905550336005600083815260200190815260200160002060006101000a81548173ffffffffffffffffffffffffffffffffffffffff021916908373ffffffffffffffffffffffffffffffffffffffff160217905550600660003373ffffffffffffffffffffffffffffffffffffffff1673ffffffffffffffffffffffffffffffffffffffff16815260200190815260200160002081908060018154018082558091505060019003906000526020600020016000909190919091505583853373ffffffffffffffffffffffffffffffffffffffff167f64bd16642eed00863590d7320e06c0f31bb0468a971feede4e13313e3b2792248460405161079c91906111ad565b60405180910390a45050505050565b6003602052816000526040600020602052806000526040600020600091509150508060000180546107db9061135b565b80601f01602080910402602001604051908101604052809291908181526020018280546108079061135b565b80156108545780601f1061082957610100808354040283529160200191610854565b820191906000526020600020905b81548152906001019060200180831161083757829003601f168201915b5050505050908060010154908060020154908060030154905084565b6007602052826000526040600020602052816000526040600020602052806000526040600020600092509250509054906101000a900460ff1681565b600660205281600052604060002081815481106108c857600080fd5b90600052602060002001600091509150505481565b60008054906101000a900473ffffffffffffffffffffffffffffffffffffffff1673ffffffffffffffffffffffffffffffffffffffff163373ffffffffffffffffffffffffffffffffffffffff161461096b576040517f08c379a000000000000000000000000000000000000000000000000000000000815260040161096290611657565b60405180910390fd5b60008060009054906101000a900473ffffffffffffffffffffffffffffffffffffffff1673ffffffffffffffffffffffffffffffffffffffff16476040516109b2906116a8565b60006040518083038185875af1925050503d80600081146109ef576040519150601f19603f3d011682016040523d82523d6000602084013e6109f4565b606091505b5050905080610a38576040517f08c379a0000000000000000000000000000000000000000000000000000000008152600401610a2f90611709565b60405180910390fd5b50565b60008060009054906101000a900473ffffffffffffffffffffffffffffffffffffffff1673ffffffffffffffffffffffffffffffffffffffff163373ffffffffffffffffffffffffffffffffffffffff1614610acc576040517f08c379a0000000000000000000000000000000000000000000000000000000008152600401610ac390611657565b60405180910390fd5b610b1c8686868080601f016020809104026020016040519081016040528093929190818152602001838380828437600081840152601f19601f820116905080830192505050505050508585610c70565b905095945050505050565b60056020528060005260406000206000915054906101000a900473ffffffffffffffffffffffffffffffffffffffff1681565b60015481565b60045481565b60008054906101000a900473ffffffffffffffffffffffffffffffffffffffff1681565b60008060009054906101000a900473ffffffffffffffffffffffffffffffffffffffff1673ffffffffffffffffffffffffffffffffffffffff163373ffffffffffffffffffffffffffffffffffffffff1614610c1b576040517f08c379a0000000000000000000000000000000000000000000000000000000008152600401610c1290611657565b60405180910390fd5b610c6883838080601f016020809104026020016040519081016040528093929190818152602001838380828437600081840152601f19601f82011690508083019250505050505050610dde565b905092915050565b60006002600086815260200190815260200160002060010160009054906101000a900460ff16610cd5576040517f08c379a0000000000000000000000000000000000000000000000000000000008152600401610ccc906113d8565b60405180910390fd5b60026000868152602001908152602001600020600201549050604051806080016040528085815260200184815260200183815260200160008152506003600087815260200190815260200160002060008381526020019081526020016000206000820151816000019081610d499190611904565b506020820151816001015560408201518160020155606082015181600301559050506001600260008781526020019081526020016000206002016000828254610d9291906115d7565b9250508190555080857f766363e141a90ab2ab87c4d5ab572d5df3ac4b4e6cd8228f13b6a56b02d8c5c6868686604051610dce939291906119d6565b60405180910390a3949350505050565b6000600154905060405180606001604052808381526020016001151581526020016000815250600260008381526020019081526020016000206000820151816000019081610e2c9190611904565b5060208201518160010160006101000a81548160ff021916908315150217905550604082015181600201559050506001806000828254610e6c91906115d7565b92505081905550807f9ce3d6db707bca4ba0eabed8fba1e2c013a1c0bc1132a764170a7854d198c73d83604051610ea39190611a14565b60405180910390a2919050565b600080fd5b600080fd5b6000819050919050565b610ecd81610eba565b8114610ed857600080fd5b50565b600081359050610eea81610ec4565b92915050565b600060208284031215610f0657610f05610eb0565b5b6000610f1484828501610edb565b91505092915050565b600081519050919050565b600082825260208201905092915050565b60005b83811015610f57578082015181840152602081019050610f3c565b60008484015250505050565b6000601f19601f8301169050919050565b6000610f7f82610f1d565b610f898185610f28565b9350610f99818560208601610f39565b610fa281610f63565b840191505092915050565b60008115159050919050565b610fc281610fad565b82525050565b610fd181610eba565b82525050565b60006060820190508181036000830152610ff18186610f74565b90506110006020830185610fb9565b61100d6040830184610fc8565b949350505050565b6000806040838503121561102c5761102b610eb0565b5b600061103a85828601610edb565b925050602061104b85828601610edb565b9150509250929050565b6000608082019050818103600083015261106f8187610f74565b905061107e6020830186610fc8565b61108b6040830185610fc8565b6110986060830184610fc8565b95945050505050565b600073ffffffffffffffffffffffffffffffffffffffff82169050919050565b60006110cc826110a1565b9050919050565b6110dc816110c1565b81146110e757600080fd5b50565b6000813590506110f9816110d3565b92915050565b60008060006060848603121561111857611117610eb0565b5b6000611126868287016110ea565b935050602061113786828701610edb565b925050604061114886828701610edb565b9150509250925092565b60006020820190506111676000830184610fb9565b92915050565b6000806040838503121561118457611183610eb0565b5b6000611192858286016110ea565b92505060206111a385828601610edb565b9150509250929050565b60006020820190506111c26000830184610fc8565b92915050565b600080fd5b600080fd5b600080fd5b60008083601f8401126111ed576111ec6111c8565b5b8235905067ffffffffffffffff81111561120a576112096111cd565b5b602083019150836001820283011115611226576112256111d2565b5b9250929050565b60008060008060006080868803121561124957611248610eb0565b5b600061125788828901610edb565b955050602086013567ffffffffffffffff81111561127857611277610eb5565b5b611284888289016111d7565b9450945050604061129788828901610edb565b92505060606112a888828901610edb565b9150509295509295909350565b6112be816110c1565b82525050565b60006020820190506112d960008301846112b5565b92915050565b600080602083850312156112f6576112f5610eb0565b5b600083013567ffffffffffffffff81111561131457611313610eb5565b5b611320858286016111d7565b92509250509250929050565b7f4e487b7100000000000000000000000000000000000000000000000000000000600052602260045260246000fd5b6000600282049050600182168061137357607f821691505b6020821081036113865761138561132c565b5b50919050565b7f4576656e74206e6f742061637469766500000000000000000000000000000000600082015250565b60006113c2601083610f28565b91506113cd8261138c565b602082019050919050565b600060208201905081810360008301526113f1816113b5565b9050919050565b7f54797065206e6f74206578697374000000000000000000000000000000000000600082015250565b600061142e600e83610f28565b9150611439826113f8565b602082019050919050565b6000602082019050818103600083015261145d81611421565b9050919050565b7f536f6c64206f7574000000000000000000000000000000000000000000000000600082015250565b600061149a600883610f28565b91506114a582611464565b602082019050919050565b600060208201905081810360008301526114c98161148d565b9050919050565b7f57726f6e67207061796d656e7400000000000000000000000000000000000000600082015250565b6000611506600d83610f28565b9150611511826114d0565b602082019050919050565b60006020820190508181036000830152611535816114f9565b9050919050565b7f416c7265616479206f776e656400000000000000000000000000000000000000600082015250565b6000611572600d83610f28565b915061157d8261153c565b602082019050919050565b600060208201905081810360008301526115a181611565565b9050919050565b7f4e487b7100000000000000000000000000000000000000000000000000000000600052601160045260246000fd5b60006115e282610eba565b91506115ed83610eba565b9250828201905080821115611605576116046115a8565b5b92915050565b7f4e6f74206f776e65720000000000000000000000000000000000000000000000600082015250565b6000611641600983610f28565b915061164c8261160b565b602082019050919050565b6000602082019050818103600083015261167081611634565b9050919050565b600081905092915050565b50565b6000611692600083611677565b915061169d82611682565b600082019050919050565b60006116b382611685565b9150819050919050565b7f5769746864726177206661696c65640000000000000000000000000000000000600082015250565b60006116f3600f83610f28565b91506116fe826116bd565b602082019050919050565b60006020820190508181036000830152611722816116e6565b9050919050565b7f4e487b7100000000000000000000000000000000000000000000000000000000600052604160045260246000fd5b60008190508160005260206000209050919050565b60006020601f8301049050919050565b600082821b905092915050565b6000600883026117ba7fffffffffffffffffffffffffffffffffffffffffffffffffffffffffffffffff8261177d565b6117c4868361177d565b95508019841693508086168417925050509392505050565b6000819050919050565b60006118016117fc6117f784610eba565b6117dc565b610eba565b9050919050565b6000819050919050565b61181b836117e6565b61182f61182782611808565b84845461178a565b825550505050565b600090565b611844611837565b61184f818484611812565b505050565b5b818110156118735761186860008261183c565b600181019050611855565b5050565b601f8211156118b85761188981611758565b6118928461176d565b810160208510156118a1578190505b6118b56118ad8561176d565b830182611854565b50505b505050565b600082821c905092915050565b60006118db600019846008026118bd565b1980831691505092915050565b60006118f483836118ca565b9150826002028217905092915050565b61190d82610f1d565b67ffffffffffffffff81111561192657611925611729565b5b611930825461135b565b61193b828285611877565b600060209050601f83116001811461196e576000841561195c578287015190505b61196685826118e8565b8655506119ce565b601f19841661197c86611758565b60005b828110156119a45784890151825560018201915060208501945060208101905061197f565b868310156119c157848901516119bd601f8916826118ca565b8355505b6001600288020188555050505b505050505050565b600060608201905081810360008301526119f08186610f74565b90506119ff6020830185610fc8565b611a0c6040830184610fc8565b949350505050565b60006020820190508181036000830152611a2e8184610f74565b90509291505056fea2646970667358221220a50595320be05a323845670f9a1c24322c863ccafe6afd2bba93d6e89d9c04b164736f6c63430008130033",
  "immutableReferences": {},
  "source": "// SPDX-License-Identifier: MIT\npragma solidity ^0.8.19;\n\ncontract TicketNFT {\n    address public owner;\n\n    struct TicketType {\n        string name;\n        uint256 priceWei;\n        uint256 maxSupply;\n        uint256 sold;\n    }\n\n    struct EventInfo {\n        string title;\n        bool active;\n        uint256 ticketTypeCount;\n    }\n\n    uint256 public eventCount;\n    mapping(uint256 => EventInfo) public events; // eventId -> event info\n    mapping(uint256 => mapping(uint256 => TicketType)) public ticketTypes; // eventId -> typeId -> ticket type\n\n    // Simple NFT ownership (minimal, not full ERC721 - enough for school prototype)\n    uint256 public nextTokenId;\n    mapping(uint256 => address) public ownerOf; // tokenId -> owner\n    mapping(address => uint256[]) public tokensOf; // owner -> tokenIds\n    mapping(address => mapping(uint256 => mapping(uint256 => bool))) public hasBought; // prevent double-buy per type\n\n    event EventCreated(uint256 indexed eventId, string title);\n    event TicketTypeAdded(uint256 indexed eventId, uint256 indexed typeId, string name, uint256 priceWei, uint256 maxSupply);\n    event TicketMinted(address indexed buyer, uint256 indexed eventId, uint256 indexed typeId, uint256 tokenId);\n\n    modifier onlyOwner() {\n        require(msg.sender == owner, \"Not owner\");\n        _;\n    }\n\n    constructor() {\n        owner = msg.sender;\n\n        // Seed 3 demo events + types (so UI works immediately)\n        _createEvent(\"Acoustic Nights\");\n        _addType(0, \"General Admission\", 0.001 ether, 500);\n        _addType(0, \"VIP\", 0.002 ether, 100);\n\n        _createEvent(\"Neon Dreams Festival\");\n        _addType(1, \"Standard\", 0.001 ether, 800);\n        _addType(1, \"Premium\", 0.002 ether, 200);\n\n        _createEvent(\"Campus Carnival Live\");\n        _addType(2, \"Entry Pass\", 0.001 ether, 300);\n        _addType(2, \"Fast Lane\", 0.0015 ether, 50);\n    }\n\n    function createEvent(string calldata title) external onlyOwner returns (uint256 eventId) {\n        return _createEvent(title);\n    }\n\n    function addTicketType(\n        uint256 eventId,\n        string calldata name,\n        uint256 priceWei,\n        uint256 maxSupply\n    ) external onlyOwner returns (uint256 typeId) {\n        return _addType(eventId, name, priceWei, maxSupply);\n    }\n\n    function buyTicket(uint256 eventId, uint256 typeId) external payable {\n        EventInfo storage e = events[eventId];\n        require(e.active, \"Event not active\");\n        TicketType storage t = ticketTypes[eventId][typeId];\n        require(t.maxSupply > 0, \"Type not exist\");\n        require(t.sold < t.maxSupply, \"Sold out\");\n        require(msg.value == t.priceWei, \"Wrong payment\");\n\n        require(!hasBought[msg.sender][eventId][typeId], \"Already owned\");\n        hasBought[msg.sender][eventId][typeId] = true;\n\n        t.sold += 1;\n\n        uint256 tokenId = nextTokenId;\n        nextTokenId += 1;\n        ownerOf[tokenId] = msg.sender;\n        tokensOf[msg.sender].push(tokenId);\n\n        emit TicketMinted(msg.sender, eventId, typeId, tokenId);\n    }\n\n    function _createEvent(string memory title) internal returns (uint256 eventId) {\n        eventId = eventCount;\n        events[eventId] = EventInfo({\n            title: title,\n            active: true,\n            ticketTypeCount: 0\n        });\n        eventCount += 1;\n        emit EventCreated(eventId, title);\n    }\n\n    function _addType(\n        uint256 eventId,\n        string memory name,\n        uint256 priceWei,\n        uint256 maxSupply\n    ) internal returns (uint256 typeId) {\n        require(events[eventId].active, \"Event not active\");\n        typeId = events[eventId].ticketTypeCount;\n        ticketTypes[eventId][typeId] = TicketType({\n            name: name,\n            priceWei: priceWei,\n            maxSupply: maxSupply,\n            sold: 0\n        });\n        events[eventId].ticketTypeCount += 1;\n        emit TicketTypeAdded(eventId, typeId, name, priceWei, maxSupply);\n    }\n\n    function withdraw() external onlyOwner {\n        (bool ok,) = owner.call{ value: address(this).balance }(\"\");\n        require(ok, \"Withdraw failed\");\n    }\n}\n",
  "sourcePath": "C:\\Users\\winnie\\OneDrive - Republic Polytechnic\\Documents\\C373-003\\C373-FA--main\\TicketNFT_Project\\TicketNFT\\blockchain\\contracts\\TicketNFT.sol",
  "compiler": {
    "name": "solc",
    "version": "0.8.19+commit.7dd6d404.Emscripten.clang"
  },
  "schemaVersion": "3.4.16",
  "updatedAt": "2026-01-20T08:02:37.641Z",
  "networkType": "ethereum",
  "devdoc": {
    "kind": "dev",
    "methods": {},
    "version": 1
  },
  "userdoc": {
    "kind": "user",
    "methods": {},
    "version": 1
  }
}