{
  "contractName": "TicketNFT",
  "abi": [
    {
      "inputs": [],
      "stateMutability": "nonpayable",
      "type": "constructor"
    },
    {
      "anonymous": false,
      "inputs": [
        {
          "indexed": true,
          "internalType": "uint256",
          "name": "eventId",
          "type": "uint256"
        },
        {
          "indexed": false,
          "internalType": "string",
          "name": "title",
          "type": "string"
        }
      ],
      "name": "EventCreated",
      "type": "event"
    },
    {
      "anonymous": false,
      "inputs": [
        {
          "indexed": true,
          "internalType": "address",
          "name": "buyer",
          "type": "address"
        },
        {
          "indexed": true,
          "internalType": "uint256",
          "name": "eventId",
          "type": "uint256"
        },
        {
          "indexed": true,
          "internalType": "uint256",
          "name": "typeId",
          "type": "uint256"
        },
        {
          "indexed": false,
          "internalType": "uint256",
          "name": "tokenId",
          "type": "uint256"
        }
      ],
      "name": "TicketMinted",
      "type": "event"
    },
    {
      "anonymous": false,
      "inputs": [
        {
          "indexed": true,
          "internalType": "uint256",
          "name": "eventId",
          "type": "uint256"
        },
        {
          "indexed": true,
          "internalType": "uint256",
          "name": "typeId",
          "type": "uint256"
        },
        {
          "indexed": false,
          "internalType": "string",
          "name": "name",
          "type": "string"
        },
        {
          "indexed": false,
          "internalType": "uint256",
          "name": "priceWei",
          "type": "uint256"
        },
        {
          "indexed": false,
          "internalType": "uint256",
          "name": "maxSupply",
          "type": "uint256"
        }
      ],
      "name": "TicketTypeAdded",
      "type": "event"
    },
    {
      "inputs": [],
      "name": "eventCount",
      "outputs": [
        {
          "internalType": "uint256",
          "name": "",
          "type": "uint256"
        }
      ],
      "stateMutability": "view",
      "type": "function"
    },
    {
      "inputs": [
        {
          "internalType": "uint256",
          "name": "",
          "type": "uint256"
        }
      ],
      "name": "events",
      "outputs": [
        {
          "internalType": "string",
          "name": "title",
          "type": "string"
        },
        {
          "internalType": "bool",
          "name": "active",
          "type": "bool"
        },
        {
          "internalType": "uint256",
          "name": "ticketTypeCount",
          "type": "uint256"
        }
      ],
      "stateMutability": "view",
      "type": "function"
    },
    {
      "inputs": [],
      "name": "nextTokenId",
      "outputs": [
        {
          "internalType": "uint256",
          "name": "",
          "type": "uint256"
        }
      ],
      "stateMutability": "view",
      "type": "function"
    },
    {
      "inputs": [],
      "name": "owner",
      "outputs": [
        {
          "internalType": "address",
          "name": "",
          "type": "address"
        }
      ],
      "stateMutability": "view",
      "type": "function"
    },
    {
      "inputs": [
        {
          "internalType": "uint256",
          "name": "",
          "type": "uint256"
        }
      ],
      "name": "ownerOf",
      "outputs": [
        {
          "internalType": "address",
          "name": "",
          "type": "address"
        }
      ],
      "stateMutability": "view",
      "type": "function"
    },
    {
      "inputs": [
        {
          "internalType": "uint256",
          "name": "",
          "type": "uint256"
        },
        {
          "internalType": "uint256",
          "name": "",
          "type": "uint256"
        }
      ],
      "name": "ticketTypes",
      "outputs": [
        {
          "internalType": "string",
          "name": "name",
          "type": "string"
        },
        {
          "internalType": "uint256",
          "name": "priceWei",
          "type": "uint256"
        },
        {
          "internalType": "uint256",
          "name": "maxSupply",
          "type": "uint256"
        },
        {
          "internalType": "uint256",
          "name": "sold",
          "type": "uint256"
        }
      ],
      "stateMutability": "view",
      "type": "function"
    },
    {
      "inputs": [
        {
          "internalType": "address",
          "name": "",
          "type": "address"
        },
        {
          "internalType": "uint256",
          "name": "",
          "type": "uint256"
        }
      ],
      "name": "tokensOf",
      "outputs": [
        {
          "internalType": "uint256",
          "name": "",
          "type": "uint256"
        }
      ],
      "stateMutability": "view",
      "type": "function"
    },
    {
      "inputs": [
        {
          "internalType": "string",
          "name": "title",
          "type": "string"
        }
      ],
      "name": "createEvent",
      "outputs": [
        {
          "internalType": "uint256",
          "name": "eventId",
          "type": "uint256"
        }
      ],
      "stateMutability": "nonpayable",
      "type": "function"
    },
    {
      "inputs": [
        {
          "internalType": "uint256",
          "name": "eventId",
          "type": "uint256"
        },
        {
          "internalType": "string",
          "name": "name",
          "type": "string"
        },
        {
          "internalType": "uint256",
          "name": "priceWei",
          "type": "uint256"
        },
        {
          "internalType": "uint256",
          "name": "maxSupply",
          "type": "uint256"
        }
      ],
      "name": "addTicketType",
      "outputs": [
        {
          "internalType": "uint256",
          "name": "typeId",
          "type": "uint256"
        }
      ],
      "stateMutability": "nonpayable",
      "type": "function"
    },
    {
      "inputs": [
        {
          "internalType": "uint256",
          "name": "eventId",
          "type": "uint256"
        },
        {
          "internalType": "uint256",
          "name": "typeId",
          "type": "uint256"
        }
      ],
      "name": "buyTicket",
      "outputs": [],
      "stateMutability": "payable",
      "type": "function"
    },
    {
      "inputs": [],
      "name": "withdraw",
      "outputs": [],
      "stateMutability": "nonpayable",
      "type": "function"
    }
  ],
  "bytecode": "0x60806040523480156200001157600080fd5b50336000806101000a81548173ffffffffffffffffffffffffffffffffffffffff021916908373ffffffffffffffffffffffffffffffffffffffff160217905550620000986040518060400160405280600f81526020017f41636f7573746963204e696768747300000000000000000000000000000000008152506200032260201b60201c565b50620000ec60006040518060400160405280601181526020017f47656e6572616c2041646d697373696f6e00000000000000000000000000000081525066038d7ea4c680006101f4620003fa60201b60201c565b506200013f60006040518060400160405280600381526020017f564950000000000000000000000000000000000000000000000000000000000081525066071afd498d00006064620003fa60201b60201c565b50620001866040518060400160405280601481526020017f4e656f6e20447265616d7320466573746976616c0000000000000000000000008152506200032260201b60201c565b50620001da60016040518060400160405280600881526020017f5374616e6461726400000000000000000000000000000000000000000000000081525066038d7ea4c68000610320620003fa60201b60201c565b506200022d60016040518060400160405280600781526020017f5072656d69756d0000000000000000000000000000000000000000000000000081525066071afd498d000060c8620003fa60201b60201c565b50620002746040518060400160405280601481526020017f43616d707573204361726e6976616c204c6976650000000000000000000000008152506200032260201b60201c565b50620002c860026040518060400160405280600a81526020017f456e74727920506173730000000000000000000000000000000000000000000081525066038d7ea4c6800061012c620003fa60201b60201c565b506200031b60026040518060400160405280600981526020017f46617374204c616e6500000000000000000000000000000000000000000000008152506605543df729c0006032620003fa60201b60201c565b5062000ab6565b6000600154905060405180606001604052808381526020016001151581526020016000815250600260008381526020019081526020016000206000820151816000019081620003729190620007eb565b5060208201518160010160006101000a81548160ff021916908315150217905550604082015181600201559050506001806000828254620003b4919062000901565b92505081905550807f9ce3d6db707bca4ba0eabed8fba1e2c013a1c0bc1132a764170a7854d198c73d83604051620003ed9190620009cb565b60405180910390a2919050565b60006002600086815260200190815260200160002060010160009054906101000a900460ff1662000462576040517f08c379a0000000000000000000000000000000000000000000000000000000008152600401620004599062000a3f565b60405180910390fd5b60026000868152602001908152602001600020600201549050604051806080016040528085815260200184815260200183815260200160008152506003600087815260200190815260200160002060008381526020019081526020016000206000820151816000019081620004d89190620007eb565b50602082015181600101556040820151816002015560608201518160030155905050600160026000878152602001908152602001600020600201600082825462000523919062000901565b9250508190555080857f766363e141a90ab2ab87c4d5ab572d5df3ac4b4e6cd8228f13b6a56b02d8c5c6868686604051620005619392919062000a72565b60405180910390a3949350505050565b600081519050919050565b7f4e487b7100000000000000000000000000000000000000000000000000000000600052604160045260246000fd5b7f4e487b7100000000000000000000000000000000000000000000000000000000600052602260045260246000fd5b60006002820490506001821680620005f357607f821691505b602082108103620006095762000608620005ab565b5b50919050565b60008190508160005260206000209050919050565b60006020601f8301049050919050565b600082821b905092915050565b600060088302620006737fffffffffffffffffffffffffffffffffffffffffffffffffffffffffffffffff8262000634565b6200067f868362000634565b95508019841693508086168417925050509392505050565b6000819050919050565b6000819050919050565b6000620006cc620006c6620006c08462000697565b620006a1565b62000697565b9050919050565b6000819050919050565b620006e883620006ab565b62000700620006f782620006d3565b84845462000641565b825550505050565b600090565b6200071762000708565b62000724818484620006dd565b505050565b5b818110156200074c57620007406000826200070d565b6001810190506200072a565b5050565b601f8211156200079b5762000765816200060f565b620007708462000624565b8101602085101562000780578190505b620007986200078f8562000624565b83018262000729565b50505b505050565b600082821c905092915050565b6000620007c060001984600802620007a0565b1980831691505092915050565b6000620007db8383620007ad565b9150826002028217905092915050565b620007f68262000571565b67ffffffffffffffff8111156200081257620008116200057c565b5b6200081e8254620005da565b6200082b82828562000750565b600060209050601f8311600181146200086357600084156200084e578287015190505b6200085a8582620007cd565b865550620008ca565b601f19841662000873866200060f565b60005b828110156200089d5784890151825560018201915060208501945060208101905062000876565b86831015620008bd5784890151620008b9601f891682620007ad565b8355505b6001600288020188555050505b505050505050565b7f4e487b7100000000000000000000000000000000000000000000000000000000600052601160045260246000fd5b60006200090e8262000697565b91506200091b8362000697565b9250828201905080821115620009365762000935620008d2565b5b92915050565b600082825260208201905092915050565b60005b838110156200096d57808201518184015260208101905062000950565b60008484015250505050565b6000601f19601f8301169050919050565b6000620009978262000571565b620009a381856200093c565b9350620009b58185602086016200094d565b620009c08162000979565b840191505092915050565b60006020820190508181036000830152620009e781846200098a565b905092915050565b7f4576656e74206e6f742061637469766500000000000000000000000000000000600082015250565b600062000a276010836200093c565b915062000a3482620009ef565b602082019050919050565b6000602082019050818103600083015262000a5a8162000a18565b9050919050565b62000a6c8162000697565b82525050565b6000606082019050818103600083015262000a8e81866200098a565b905062000a9f602083018562000a61565b62000aae604083018462000a61565b949350505050565b6117e58062000ac66000396000f3fe60806040526004361061009c5760003560e01c80634653db16116100645780634653db16146101905780636352211e146101cd57806371be2e4a1461020a57806375794a3c146102355780638da5cb5b146102605780639bc2bc711461028b5761009c565b80630b791430146100a1578063298ec208146100e05780632e59900f146100fc57806338a3dbae1461013c5780633ccfd60b14610179575b600080fd5b3480156100ad57600080fd5b506100c860048036038101906100c39190610d43565b6102c8565b6040516100d793929190610e2a565b60405180910390f35b6100fa60048036038101906100f59190610e68565b610387565b005b34801561010857600080fd5b50610123600480360381019061011e9190610e68565b61063a565b6040516101339493929190610ea8565b60405180910390f35b34801561014857600080fd5b50610163600480360381019061015e9190610f52565b6106ff565b6040516101709190610f92565b60405180910390f35b34801561018557600080fd5b5061018e610730565b005b34801561019c57600080fd5b506101b760048036038101906101b29190611012565b61088e565b6040516101c49190610f92565b60405180910390f35b3480156101d957600080fd5b506101f460048036038101906101ef9190610d43565b61097a565b60405161020191906110a9565b60405180910390f35b34801561021657600080fd5b5061021f6109ad565b60405161022c9190610f92565b60405180910390f35b34801561024157600080fd5b5061024a6109b3565b6040516102579190610f92565b60405180910390f35b34801561026c57600080fd5b506102756109b9565b60405161028291906110a9565b60405180910390f35b34801561029757600080fd5b506102b260048036038101906102ad91906110c4565b6109dd565b6040516102bf9190610f92565b60405180910390f35b60026020528060005260406000206000915090508060000180546102eb90611140565b80601f016020809104026020016040519081016040528092919081815260200182805461031790611140565b80156103645780601f1061033957610100808354040283529160200191610364565b820191906000526020600020905b81548152906001019060200180831161034757829003601f168201915b5050505050908060010160009054906101000a900460ff16908060020154905083565b60006002600084815260200190815260200160002090508060010160009054906101000a900460ff166103ef576040517f08c379a00000000000000000000000000000000000000000000000000000000081526004016103e6906111bd565b60405180910390fd5b60006003600085815260200190815260200160002060008481526020019081526020016000209050600081600201541161045e576040517f08c379a000000000000000000000000000000000000000000000000000000000815260040161045590611229565b60405180910390fd5b80600201548160030154106104a8576040517f08c379a000000000000000000000000000000000000000000000000000000000815260040161049f90611295565b60405180910390fd5b806001015434146104ee576040517f08c379a00000000000000000000000000000000000000000000000000000000081526004016104e590611301565b60405180910390fd5b60018160030160008282546105039190611350565b92505081905550600060045490506001600460008282546105249190611350565b92505081905550336005600083815260200190815260200160002060006101000a81548173ffffffffffffffffffffffffffffffffffffffff021916908373ffffffffffffffffffffffffffffffffffffffff160217905550600660003373ffffffffffffffffffffffffffffffffffffffff1673ffffffffffffffffffffffffffffffffffffffff16815260200190815260200160002081908060018154018082558091505060019003906000526020600020016000909190919091505583853373ffffffffffffffffffffffffffffffffffffffff167f64bd16642eed00863590d7320e06c0f31bb0468a971feede4e13313e3b2792248460405161062b9190610f92565b60405180910390a45050505050565b60036020528160005260406000206020528060005260406000206000915091505080600001805461066a90611140565b80601f016020809104026020016040519081016040528092919081815260200182805461069690611140565b80156106e35780601f106106b8576101008083540402835291602001916106e3565b820191906000526020600020905b8154815290600101906020018083116106c657829003601f168201915b5050505050908060010154908060020154908060030154905084565b6006602052816000526040600020818154811061071b57600080fd5b90600052602060002001600091509150505481565b60008054906101000a900473ffffffffffffffffffffffffffffffffffffffff1673ffffffffffffffffffffffffffffffffffffffff163373ffffffffffffffffffffffffffffffffffffffff16146107be576040517f08c379a00000000000000000000000000000000000000000000000000000000081526004016107b5906113d0565b60405180910390fd5b60008060009054906101000a900473ffffffffffffffffffffffffffffffffffffffff1673ffffffffffffffffffffffffffffffffffffffff164760405161080590611421565b60006040518083038185875af1925050503d8060008114610842576040519150601f19603f3d011682016040523d82523d6000602084013e610847565b606091505b505090508061088b576040517f08c379a000000000000000000000000000000000000000000000000000000000815260040161088290611482565b60405180910390fd5b50565b60008060009054906101000a900473ffffffffffffffffffffffffffffffffffffffff1673ffffffffffffffffffffffffffffffffffffffff163373ffffffffffffffffffffffffffffffffffffffff161461091f576040517f08c379a0000000000000000000000000000000000000000000000000000000008152600401610916906113d0565b60405180910390fd5b61096f8686868080601f016020809104026020016040519081016040528093929190818152602001838380828437600081840152601f19601f820116905080830192505050505050508585610ac3565b905095945050505050565b60056020528060005260406000206000915054906101000a900473ffffffffffffffffffffffffffffffffffffffff1681565b60015481565b60045481565b60008054906101000a900473ffffffffffffffffffffffffffffffffffffffff1681565b60008060009054906101000a900473ffffffffffffffffffffffffffffffffffffffff1673ffffffffffffffffffffffffffffffffffffffff163373ffffffffffffffffffffffffffffffffffffffff1614610a6e576040517f08c379a0000000000000000000000000000000000000000000000000000000008152600401610a65906113d0565b60405180910390fd5b610abb83838080601f016020809104026020016040519081016040528093929190818152602001838380828437600081840152601f19601f82011690508083019250505050505050610c31565b905092915050565b60006002600086815260200190815260200160002060010160009054906101000a900460ff16610b28576040517f08c379a0000000000000000000000000000000000000000000000000000000008152600401610b1f906111bd565b60405180910390fd5b60026000868152602001908152602001600020600201549050604051806080016040528085815260200184815260200183815260200160008152506003600087815260200190815260200160002060008381526020019081526020016000206000820151816000019081610b9c919061167d565b506020820151816001015560408201518160020155606082015181600301559050506001600260008781526020019081526020016000206002016000828254610be59190611350565b9250508190555080857f766363e141a90ab2ab87c4d5ab572d5df3ac4b4e6cd8228f13b6a56b02d8c5c6868686604051610c219392919061174f565b60405180910390a3949350505050565b6000600154905060405180606001604052808381526020016001151581526020016000815250600260008381526020019081526020016000206000820151816000019081610c7f919061167d565b5060208201518160010160006101000a81548160ff021916908315150217905550604082015181600201559050506001806000828254610cbf9190611350565b92505081905550807f9ce3d6db707bca4ba0eabed8fba1e2c013a1c0bc1132a764170a7854d198c73d83604051610cf6919061178d565b60405180910390a2919050565b600080fd5b600080fd5b6000819050919050565b610d2081610d0d565b8114610d2b57600080fd5b50565b600081359050610d3d81610d17565b92915050565b600060208284031215610d5957610d58610d03565b5b6000610d6784828501610d2e565b91505092915050565b600081519050919050565b600082825260208201905092915050565b60005b83811015610daa578082015181840152602081019050610d8f565b60008484015250505050565b6000601f19601f8301169050919050565b6000610dd282610d70565b610ddc8185610d7b565b9350610dec818560208601610d8c565b610df581610db6565b840191505092915050565b60008115159050919050565b610e1581610e00565b82525050565b610e2481610d0d565b82525050565b60006060820190508181036000830152610e448186610dc7565b9050610e536020830185610e0c565b610e606040830184610e1b565b949350505050565b60008060408385031215610e7f57610e7e610d03565b5b6000610e8d85828601610d2e565b9250506020610e9e85828601610d2e565b9150509250929050565b60006080820190508181036000830152610ec28187610dc7565b9050610ed16020830186610e1b565b610ede6040830185610e1b565b610eeb6060830184610e1b565b95945050505050565b600073ffffffffffffffffffffffffffffffffffffffff82169050919050565b6000610f1f82610ef4565b9050919050565b610f2f81610f14565b8114610f3a57600080fd5b50565b600081359050610f4c81610f26565b92915050565b60008060408385031215610f6957610f68610d03565b5b6000610f7785828601610f3d565b9250506020610f8885828601610d2e565b9150509250929050565b6000602082019050610fa76000830184610e1b565b92915050565b600080fd5b600080fd5b600080fd5b60008083601f840112610fd257610fd1610fad565b5b8235905067ffffffffffffffff811115610fef57610fee610fb2565b5b60208301915083600182028301111561100b5761100a610fb7565b5b9250929050565b60008060008060006080868803121561102e5761102d610d03565b5b600061103c88828901610d2e565b955050602086013567ffffffffffffffff81111561105d5761105c610d08565b5b61106988828901610fbc565b9450945050604061107c88828901610d2e565b925050606061108d88828901610d2e565b9150509295509295909350565b6110a381610f14565b82525050565b60006020820190506110be600083018461109a565b92915050565b600080602083850312156110db576110da610d03565b5b600083013567ffffffffffffffff8111156110f9576110f8610d08565b5b61110585828601610fbc565b92509250509250929050565b7f4e487b7100000000000000000000000000000000000000000000000000000000600052602260045260246000fd5b6000600282049050600182168061115857607f821691505b60208210810361116b5761116a611111565b5b50919050565b7f4576656e74206e6f742061637469766500000000000000000000000000000000600082015250565b60006111a7601083610d7b565b91506111b282611171565b602082019050919050565b600060208201905081810360008301526111d68161119a565b9050919050565b7f54797065206e6f74206578697374000000000000000000000000000000000000600082015250565b6000611213600e83610d7b565b915061121e826111dd565b602082019050919050565b6000602082019050818103600083015261124281611206565b9050919050565b7f536f6c64206f7574000000000000000000000000000000000000000000000000600082015250565b600061127f600883610d7b565b915061128a82611249565b602082019050919050565b600060208201905081810360008301526112ae81611272565b9050919050565b7f57726f6e67207061796d656e7400000000000000000000000000000000000000600082015250565b60006112eb600d83610d7b565b91506112f6826112b5565b602082019050919050565b6000602082019050818103600083015261131a816112de565b9050919050565b7f4e487b7100000000000000000000000000000000000000000000000000000000600052601160045260246000fd5b600061135b82610d0d565b915061136683610d0d565b925082820190508082111561137e5761137d611321565b5b92915050565b7f4e6f74206f776e65720000000000000000000000000000000000000000000000600082015250565b60006113ba600983610d7b565b91506113c582611384565b602082019050919050565b600060208201905081810360008301526113e9816113ad565b9050919050565b600081905092915050565b50565b600061140b6000836113f0565b9150611416826113fb565b600082019050919050565b600061142c826113fe565b9150819050919050565b7f5769746864726177206661696c65640000000000000000000000000000000000600082015250565b600061146c600f83610d7b565b915061147782611436565b602082019050919050565b6000602082019050818103600083015261149b8161145f565b9050919050565b7f4e487b7100000000000000000000000000000000000000000000000000000000600052604160045260246000fd5b60008190508160005260206000209050919050565b60006020601f8301049050919050565b600082821b905092915050565b6000600883026115337fffffffffffffffffffffffffffffffffffffffffffffffffffffffffffffffff826114f6565b61153d86836114f6565b95508019841693508086168417925050509392505050565b6000819050919050565b600061157a61157561157084610d0d565b611555565b610d0d565b9050919050565b6000819050919050565b6115948361155f565b6115a86115a082611581565b848454611503565b825550505050565b600090565b6115bd6115b0565b6115c881848461158b565b505050565b5b818110156115ec576115e16000826115b5565b6001810190506115ce565b5050565b601f82111561163157611602816114d1565b61160b846114e6565b8101602085101561161a578190505b61162e611626856114e6565b8301826115cd565b50505b505050565b600082821c905092915050565b600061165460001984600802611636565b1980831691505092915050565b600061166d8383611643565b9150826002028217905092915050565b61168682610d70565b67ffffffffffffffff81111561169f5761169e6114a2565b5b6116a98254611140565b6116b48282856115f0565b600060209050601f8311600181146116e757600084156116d5578287015190505b6116df8582611661565b865550611747565b601f1984166116f5866114d1565b60005b8281101561171d578489015182556001820191506020850194506020810190506116f8565b8683101561173a5784890151611736601f891682611643565b8355505b6001600288020188555050505b505050505050565b600060608201905081810360008301526117698186610dc7565b90506117786020830185610e1b565b6117856040830184610e1b565b949350505050565b600060208201905081810360008301526117a78184610dc7565b90509291505056fea26469706673582212206217aa7416d74c0c320634bc08e054129d5a1a28ab467482326f3ec5895bd29264736f6c63430008130033",
  "immutableReferences": {},
  "source": "// SPDX-License-Identifier: MIT\r\npragma solidity ^0.8.19;\r\n\r\ncontract TicketNFT {\r\n    address public owner;\r\n\r\n    struct TicketType {\r\n        string name;\r\n        uint256 priceWei;\r\n        uint256 maxSupply;\r\n        uint256 sold;\r\n    }\r\n\r\n    struct EventInfo {\r\n        string title;\r\n        bool active;\r\n        uint256 ticketTypeCount;\r\n    }\r\n\r\n    uint256 public eventCount;\r\n    mapping(uint256 => EventInfo) public events; // eventId -> event info\r\n    mapping(uint256 => mapping(uint256 => TicketType)) public ticketTypes; // eventId -> typeId -> ticket type\r\n\r\n    // Simple NFT ownership (minimal, not full ERC721 - enough for school prototype)\r\n    uint256 public nextTokenId;\r\n    mapping(uint256 => address) public ownerOf; // tokenId -> owner\r\n    mapping(address => uint256[]) public tokensOf; // owner -> tokenIds\r\n    // Allow multiple purchases per ticket type (no per-type lockout).\r\n\r\n    event EventCreated(uint256 indexed eventId, string title);\r\n    event TicketTypeAdded(uint256 indexed eventId, uint256 indexed typeId, string name, uint256 priceWei, uint256 maxSupply);\r\n    event TicketMinted(address indexed buyer, uint256 indexed eventId, uint256 indexed typeId, uint256 tokenId);\r\n\r\n    modifier onlyOwner() {\r\n        require(msg.sender == owner, \"Not owner\");\r\n        _;\r\n    }\r\n\r\n    constructor() {\r\n        owner = msg.sender;\r\n\r\n        // Seed 3 demo events + types (so UI works immediately)\r\n        _createEvent(\"Acoustic Nights\");\r\n        _addType(0, \"General Admission\", 0.001 ether, 500);\r\n        _addType(0, \"VIP\", 0.002 ether, 100);\r\n\r\n        _createEvent(\"Neon Dreams Festival\");\r\n        _addType(1, \"Standard\", 0.001 ether, 800);\r\n        _addType(1, \"Premium\", 0.002 ether, 200);\r\n\r\n        _createEvent(\"Campus Carnival Live\");\r\n        _addType(2, \"Entry Pass\", 0.001 ether, 300);\r\n        _addType(2, \"Fast Lane\", 0.0015 ether, 50);\r\n    }\r\n\r\n    function createEvent(string calldata title) external onlyOwner returns (uint256 eventId) {\r\n        return _createEvent(title);\r\n    }\r\n\r\n    function addTicketType(\r\n        uint256 eventId,\r\n        string calldata name,\r\n        uint256 priceWei,\r\n        uint256 maxSupply\r\n    ) external onlyOwner returns (uint256 typeId) {\r\n        return _addType(eventId, name, priceWei, maxSupply);\r\n    }\r\n\r\n    function buyTicket(uint256 eventId, uint256 typeId) external payable {\r\n        EventInfo storage e = events[eventId];\r\n        require(e.active, \"Event not active\");\r\n        TicketType storage t = ticketTypes[eventId][typeId];\r\n        require(t.maxSupply > 0, \"Type not exist\");\r\n        require(t.sold < t.maxSupply, \"Sold out\");\r\n        require(msg.value == t.priceWei, \"Wrong payment\");\r\n\r\n        t.sold += 1;\r\n\r\n        uint256 tokenId = nextTokenId;\r\n        nextTokenId += 1;\r\n        ownerOf[tokenId] = msg.sender;\r\n        tokensOf[msg.sender].push(tokenId);\r\n\r\n        emit TicketMinted(msg.sender, eventId, typeId, tokenId);\r\n    }\r\n\r\n    function _createEvent(string memory title) internal returns (uint256 eventId) {\r\n        eventId = eventCount;\r\n        events[eventId] = EventInfo({\r\n            title: title,\r\n            active: true,\r\n            ticketTypeCount: 0\r\n        });\r\n        eventCount += 1;\r\n        emit EventCreated(eventId, title);\r\n    }\r\n\r\n    function _addType(\r\n        uint256 eventId,\r\n        string memory name,\r\n        uint256 priceWei,\r\n        uint256 maxSupply\r\n    ) internal returns (uint256 typeId) {\r\n        require(events[eventId].active, \"Event not active\");\r\n        typeId = events[eventId].ticketTypeCount;\r\n        ticketTypes[eventId][typeId] = TicketType({\r\n            name: name,\r\n            priceWei: priceWei,\r\n            maxSupply: maxSupply,\r\n            sold: 0\r\n        });\r\n        events[eventId].ticketTypeCount += 1;\r\n        emit TicketTypeAdded(eventId, typeId, name, priceWei, maxSupply);\r\n    }\r\n\r\n    function withdraw() external onlyOwner {\r\n        (bool ok,) = owner.call{ value: address(this).balance }(\"\");\r\n        require(ok, \"Withdraw failed\");\r\n    }\r\n}\r\n",
  "sourcePath": "C:\\C373\\FA CODES\\C373_FA_Team1\\blockchain\\contracts\\TicketNFT.sol",
  "compiler": {
    "name": "solc",
    "version": "0.8.19+commit.7dd6d404.Emscripten.clang"
  },
  "schemaVersion": "3.4.16",
  "updatedAt": "2026-01-22T18:06:04.565Z",
  "devdoc": {
    "kind": "dev",
    "methods": {},
    "version": 1
  },
  "userdoc": {
    "kind": "user",
    "methods": {},
    "version": 1
  }
}